{
	"ArrayANDStruct.sol": {
		"StudentManager": {
			"abi": [
				{
					"inputs": [
						{
							"internalType": "uint256",
							"name": "_id",
							"type": "uint256"
						},
						{
							"internalType": "string",
							"name": "_courseName",
							"type": "string"
						}
					],
					"name": "addCourse",
					"outputs": [],
					"stateMutability": "nonpayable",
					"type": "function"
				},
				{
					"inputs": [
						{
							"internalType": "uint256",
							"name": "_id",
							"type": "uint256"
						},
						{
							"internalType": "string",
							"name": "_name",
							"type": "string"
						},
						{
							"internalType": "uint256",
							"name": "_age",
							"type": "uint256"
						},
						{
							"internalType": "string[]",
							"name": "_courses",
							"type": "string[]"
						}
					],
					"name": "addStudent",
					"outputs": [],
					"stateMutability": "nonpayable",
					"type": "function"
				},
				{
					"inputs": [
						{
							"internalType": "uint256",
							"name": "index",
							"type": "uint256"
						},
						{
							"internalType": "uint256",
							"name": "courseIndex",
							"type": "uint256"
						}
					],
					"name": "getStudentCourse",
					"outputs": [
						{
							"internalType": "string",
							"name": "",
							"type": "string"
						}
					],
					"stateMutability": "view",
					"type": "function"
				},
				{
					"inputs": [
						{
							"internalType": "uint256",
							"name": "index",
							"type": "uint256"
						}
					],
					"name": "getStudentName",
					"outputs": [
						{
							"internalType": "string",
							"name": "",
							"type": "string"
						}
					],
					"stateMutability": "view",
					"type": "function"
				},
				{
					"inputs": [],
					"name": "getTotalStudents",
					"outputs": [
						{
							"internalType": "uint256",
							"name": "",
							"type": "uint256"
						}
					],
					"stateMutability": "view",
					"type": "function"
				},
				{
					"inputs": [
						{
							"internalType": "uint256",
							"name": "",
							"type": "uint256"
						}
					],
					"name": "studentById",
					"outputs": [
						{
							"internalType": "uint256",
							"name": "id",
							"type": "uint256"
						},
						{
							"internalType": "string",
							"name": "name",
							"type": "string"
						},
						{
							"internalType": "uint256",
							"name": "age",
							"type": "uint256"
						}
					],
					"stateMutability": "view",
					"type": "function"
				},
				{
					"inputs": [
						{
							"internalType": "uint256",
							"name": "",
							"type": "uint256"
						}
					],
					"name": "students",
					"outputs": [
						{
							"internalType": "uint256",
							"name": "id",
							"type": "uint256"
						},
						{
							"internalType": "string",
							"name": "name",
							"type": "string"
						},
						{
							"internalType": "uint256",
							"name": "age",
							"type": "uint256"
						}
					],
					"stateMutability": "view",
					"type": "function"
				}
			],
			"devdoc": {
				"kind": "dev",
				"methods": {},
				"version": 1
			},
			"evm": {
				"assembly": "    /* \"ArrayANDStruct.sol\":58:2036  contract StudentManager {... */\n  mstore(0x40, 0x80)\n  callvalue\n  dup1\n  iszero\n  tag_1\n  jumpi\n  0x00\n  dup1\n  revert\ntag_1:\n  pop\n  dataSize(sub_0)\n  dup1\n  dataOffset(sub_0)\n  0x00\n  codecopy\n  0x00\n  return\nstop\n\nsub_0: assembly {\n        /* \"ArrayANDStruct.sol\":58:2036  contract StudentManager {... */\n      mstore(0x40, 0x80)\n      callvalue\n      dup1\n      iszero\n      tag_1\n      jumpi\n      0x00\n      dup1\n      revert\n    tag_1:\n      pop\n      jumpi(tag_2, lt(calldatasize, 0x04))\n      shr(0xe0, calldataload(0x00))\n      dup1\n      0x32698a09\n      gt\n      tag_10\n      jumpi\n      dup1\n      0x32698a09\n      eq\n      tag_6\n      jumpi\n      dup1\n      0x9ac43876\n      eq\n      tag_7\n      jumpi\n      dup1\n      0xbf23fccc\n      eq\n      tag_8\n      jumpi\n      dup1\n      0xc3447983\n      eq\n      tag_9\n      jumpi\n      jump(tag_2)\n    tag_10:\n      dup1\n      0x06ead22e\n      eq\n      tag_3\n      jumpi\n      dup1\n      0x1c9f7bb9\n      eq\n      tag_4\n      jumpi\n      dup1\n      0x28bcb51a\n      eq\n      tag_5\n      jumpi\n    tag_2:\n      0x00\n      dup1\n      revert\n        /* \"ArrayANDStruct.sol\":437:462  Student[] public students */\n    tag_3:\n      tag_11\n      0x04\n      dup1\n      calldatasize\n      sub\n      dup2\n      add\n      swap1\n      tag_12\n      swap2\n      swap1\n      tag_13\n      jump\t// in\n    tag_12:\n      tag_14\n      jump\t// in\n    tag_11:\n      mload(0x40)\n      tag_15\n      swap4\n      swap3\n      swap2\n      swap1\n      tag_16\n      jump\t// in\n    tag_15:\n      mload(0x40)\n      dup1\n      swap2\n      sub\n      swap1\n      return\n        /* \"ArrayANDStruct.sol\":559:605  mapping(uint256 => Student) public studentById */\n    tag_4:\n      tag_17\n      0x04\n      dup1\n      calldatasize\n      sub\n      dup2\n      add\n      swap1\n      tag_18\n      swap2\n      swap1\n      tag_13\n      jump\t// in\n    tag_18:\n      tag_19\n      jump\t// in\n    tag_17:\n      mload(0x40)\n      tag_20\n      swap4\n      swap3\n      swap2\n      swap1\n      tag_16\n      jump\t// in\n    tag_20:\n      mload(0x40)\n      dup1\n      swap2\n      sub\n      swap1\n      return\n        /* \"ArrayANDStruct.sol\":1937:2034  function getTotalStudents() public view returns (uint256) {... */\n    tag_5:\n      tag_21\n      tag_22\n      jump\t// in\n    tag_21:\n      mload(0x40)\n      tag_23\n      swap2\n      swap1\n      tag_24\n      jump\t// in\n    tag_23:\n      mload(0x40)\n      dup1\n      swap2\n      sub\n      swap1\n      return\n        /* \"ArrayANDStruct.sol\":1527:1895  function addCourse(uint256 _id, string memory _courseName) public {... */\n    tag_6:\n      tag_25\n      0x04\n      dup1\n      calldatasize\n      sub\n      dup2\n      add\n      swap1\n      tag_26\n      swap2\n      swap1\n      tag_27\n      jump\t// in\n    tag_26:\n      tag_28\n      jump\t// in\n    tag_25:\n      stop\n        /* \"ArrayANDStruct.sol\":1141:1260  function getStudentName(uint256 index) public view returns (string memory) {... */\n    tag_7:\n      tag_29\n      0x04\n      dup1\n      calldatasize\n      sub\n      dup2\n      add\n      swap1\n      tag_30\n      swap2\n      swap1\n      tag_13\n      jump\t// in\n    tag_30:\n      tag_31\n      jump\t// in\n    tag_29:\n      mload(0x40)\n      tag_32\n      swap2\n      swap1\n      tag_33\n      jump\t// in\n    tag_32:\n      mload(0x40)\n      dup1\n      swap2\n      sub\n      swap1\n      return\n        /* \"ArrayANDStruct.sol\":1313:1471  function getStudentCourse(uint256 index, uint256 courseIndex) public view returns (string memory) {... */\n    tag_8:\n      tag_34\n      0x04\n      dup1\n      calldatasize\n      sub\n      dup2\n      add\n      swap1\n      tag_35\n      swap2\n      swap1\n      tag_36\n      jump\t// in\n    tag_35:\n      tag_37\n      jump\t// in\n    tag_34:\n      mload(0x40)\n      tag_38\n      swap2\n      swap1\n      tag_33\n      jump\t// in\n    tag_38:\n      mload(0x40)\n      dup1\n      swap2\n      sub\n      swap1\n      return\n        /* \"ArrayANDStruct.sol\":649:1083  function addStudent(... */\n    tag_9:\n      tag_39\n      0x04\n      dup1\n      calldatasize\n      sub\n      dup2\n      add\n      swap1\n      tag_40\n      swap2\n      swap1\n      tag_41\n      jump\t// in\n    tag_40:\n      tag_42\n      jump\t// in\n    tag_39:\n      stop\n        /* \"ArrayANDStruct.sol\":437:462  Student[] public students */\n    tag_14:\n      0x00\n      dup2\n      dup2\n      sload\n      dup2\n      lt\n      tag_43\n      jumpi\n      0x00\n      dup1\n      revert\n    tag_43:\n      swap1\n      0x00\n      mstore\n      keccak256(0x00, 0x20)\n      swap1\n      0x04\n      mul\n      add\n      0x00\n      swap2\n      pop\n      swap1\n      pop\n      dup1\n      0x00\n      add\n      sload\n      swap1\n      dup1\n      0x01\n      add\n      dup1\n      sload\n      tag_45\n      swap1\n      tag_46\n      jump\t// in\n    tag_45:\n      dup1\n      0x1f\n      add\n      0x20\n      dup1\n      swap2\n      div\n      mul\n      0x20\n      add\n      mload(0x40)\n      swap1\n      dup2\n      add\n      0x40\n      mstore\n      dup1\n      swap3\n      swap2\n      swap1\n      dup2\n      dup2\n      mstore\n      0x20\n      add\n      dup3\n      dup1\n      sload\n      tag_47\n      swap1\n      tag_46\n      jump\t// in\n    tag_47:\n      dup1\n      iszero\n      tag_48\n      jumpi\n      dup1\n      0x1f\n      lt\n      tag_49\n      jumpi\n      0x0100\n      dup1\n      dup4\n      sload\n      div\n      mul\n      dup4\n      mstore\n      swap2\n      0x20\n      add\n      swap2\n      jump(tag_48)\n    tag_49:\n      dup3\n      add\n      swap2\n      swap1\n      0x00\n      mstore\n      keccak256(0x00, 0x20)\n      swap1\n    tag_50:\n      dup2\n      sload\n      dup2\n      mstore\n      swap1\n      0x01\n      add\n      swap1\n      0x20\n      add\n      dup1\n      dup4\n      gt\n      tag_50\n      jumpi\n      dup3\n      swap1\n      sub\n      0x1f\n      and\n      dup3\n      add\n      swap2\n    tag_48:\n      pop\n      pop\n      pop\n      pop\n      pop\n      swap1\n      dup1\n      0x02\n      add\n      sload\n      swap1\n      pop\n      dup4\n      jump\t// out\n        /* \"ArrayANDStruct.sol\":559:605  mapping(uint256 => Student) public studentById */\n    tag_19:\n      mstore(0x20, 0x01)\n      dup1\n      0x00\n      mstore\n      keccak256(0x00, 0x40)\n      0x00\n      swap2\n      pop\n      swap1\n      pop\n      dup1\n      0x00\n      add\n      sload\n      swap1\n      dup1\n      0x01\n      add\n      dup1\n      sload\n      tag_51\n      swap1\n      tag_46\n      jump\t// in\n    tag_51:\n      dup1\n      0x1f\n      add\n      0x20\n      dup1\n      swap2\n      div\n      mul\n      0x20\n      add\n      mload(0x40)\n      swap1\n      dup2\n      add\n      0x40\n      mstore\n      dup1\n      swap3\n      swap2\n      swap1\n      dup2\n      dup2\n      mstore\n      0x20\n      add\n      dup3\n      dup1\n      sload\n      tag_52\n      swap1\n      tag_46\n      jump\t// in\n    tag_52:\n      dup1\n      iszero\n      tag_53\n      jumpi\n      dup1\n      0x1f\n      lt\n      tag_54\n      jumpi\n      0x0100\n      dup1\n      dup4\n      sload\n      div\n      mul\n      dup4\n      mstore\n      swap2\n      0x20\n      add\n      swap2\n      jump(tag_53)\n    tag_54:\n      dup3\n      add\n      swap2\n      swap1\n      0x00\n      mstore\n      keccak256(0x00, 0x20)\n      swap1\n    tag_55:\n      dup2\n      sload\n      dup2\n      mstore\n      swap1\n      0x01\n      add\n      swap1\n      0x20\n      add\n      dup1\n      dup4\n      gt\n      tag_55\n      jumpi\n      dup3\n      swap1\n      sub\n      0x1f\n      and\n      dup3\n      add\n      swap2\n    tag_53:\n      pop\n      pop\n      pop\n      pop\n      pop\n      swap1\n      dup1\n      0x02\n      add\n      sload\n      swap1\n      pop\n      dup4\n      jump\t// out\n        /* \"ArrayANDStruct.sol\":1937:2034  function getTotalStudents() public view returns (uint256) {... */\n    tag_22:\n        /* \"ArrayANDStruct.sol\":1986:1993  uint256 */\n      0x00\n        /* \"ArrayANDStruct.sol\":2012:2020  students */\n      dup1\n        /* \"ArrayANDStruct.sol\":2012:2027  students.length */\n      dup1\n      sload\n      swap1\n      pop\n        /* \"ArrayANDStruct.sol\":2005:2027  return students.length */\n      swap1\n      pop\n        /* \"ArrayANDStruct.sol\":1937:2034  function getTotalStudents() public view returns (uint256) {... */\n      swap1\n      jump\t// out\n        /* \"ArrayANDStruct.sol\":1527:1895  function addCourse(uint256 _id, string memory _courseName) public {... */\n    tag_28:\n        /* \"ArrayANDStruct.sol\":1603:1614  studentById */\n      0x01\n        /* \"ArrayANDStruct.sol\":1603:1619  studentById[_id] */\n      0x00\n        /* \"ArrayANDStruct.sol\":1615:1618  _id */\n      dup4\n        /* \"ArrayANDStruct.sol\":1603:1619  studentById[_id] */\n      dup2\n      mstore\n      0x20\n      add\n      swap1\n      dup2\n      mstore\n      0x20\n      add\n      0x00\n      keccak256\n        /* \"ArrayANDStruct.sol\":1603:1627  studentById[_id].courses */\n      0x03\n      add\n        /* \"ArrayANDStruct.sol\":1633:1644  _courseName */\n      dup2\n        /* \"ArrayANDStruct.sol\":1603:1645  studentById[_id].courses.push(_courseName) */\n      swap1\n      dup1\n      0x01\n      dup2\n      sload\n      add\n      dup1\n      dup3\n      sstore\n      dup1\n      swap2\n      pop\n      pop\n      0x01\n      swap1\n      sub\n      swap1\n      0x00\n      mstore\n      keccak256(0x00, 0x20)\n      add\n      0x00\n      swap1\n      swap2\n      swap1\n      swap2\n      swap1\n      swap2\n      pop\n      swap1\n      dup2\n      tag_59\n      swap2\n      swap1\n      tag_60\n      jump\t// in\n    tag_59:\n      pop\n        /* \"ArrayANDStruct.sol\":1707:1713  uint i */\n      0x00\n        /* \"ArrayANDStruct.sol\":1702:1889  for (uint i = 0; i < students.length; i++) {... */\n    tag_61:\n        /* \"ArrayANDStruct.sol\":1723:1731  students */\n      0x00\n        /* \"ArrayANDStruct.sol\":1723:1738  students.length */\n      dup1\n      sload\n      swap1\n      pop\n        /* \"ArrayANDStruct.sol\":1719:1720  i */\n      dup2\n        /* \"ArrayANDStruct.sol\":1719:1738  i < students.length */\n      lt\n        /* \"ArrayANDStruct.sol\":1702:1889  for (uint i = 0; i < students.length; i++) {... */\n      iszero\n      tag_62\n      jumpi\n        /* \"ArrayANDStruct.sol\":1781:1784  _id */\n      dup3\n        /* \"ArrayANDStruct.sol\":1763:1771  students */\n      0x00\n        /* \"ArrayANDStruct.sol\":1772:1773  i */\n      dup3\n        /* \"ArrayANDStruct.sol\":1763:1774  students[i] */\n      dup2\n      sload\n      dup2\n      lt\n      tag_64\n      jumpi\n      tag_65\n      tag_66\n      jump\t// in\n    tag_65:\n    tag_64:\n      swap1\n      0x00\n      mstore\n      keccak256(0x00, 0x20)\n      swap1\n      0x04\n      mul\n      add\n        /* \"ArrayANDStruct.sol\":1763:1777  students[i].id */\n      0x00\n      add\n      sload\n        /* \"ArrayANDStruct.sol\":1763:1784  students[i].id == _id */\n      sub\n        /* \"ArrayANDStruct.sol\":1759:1879  if (students[i].id == _id) {... */\n      tag_68\n      jumpi\n        /* \"ArrayANDStruct.sol\":1804:1812  students */\n      0x00\n        /* \"ArrayANDStruct.sol\":1813:1814  i */\n      dup2\n        /* \"ArrayANDStruct.sol\":1804:1815  students[i] */\n      dup2\n      sload\n      dup2\n      lt\n      tag_69\n      jumpi\n      tag_70\n      tag_66\n      jump\t// in\n    tag_70:\n    tag_69:\n      swap1\n      0x00\n      mstore\n      keccak256(0x00, 0x20)\n      swap1\n      0x04\n      mul\n      add\n        /* \"ArrayANDStruct.sol\":1804:1823  students[i].courses */\n      0x03\n      add\n        /* \"ArrayANDStruct.sol\":1829:1840  _courseName */\n      dup3\n        /* \"ArrayANDStruct.sol\":1804:1841  students[i].courses.push(_courseName) */\n      swap1\n      dup1\n      0x01\n      dup2\n      sload\n      add\n      dup1\n      dup3\n      sstore\n      dup1\n      swap2\n      pop\n      pop\n      0x01\n      swap1\n      sub\n      swap1\n      0x00\n      mstore\n      keccak256(0x00, 0x20)\n      add\n      0x00\n      swap1\n      swap2\n      swap1\n      swap2\n      swap1\n      swap2\n      pop\n      swap1\n      dup2\n      tag_73\n      swap2\n      swap1\n      tag_60\n      jump\t// in\n    tag_73:\n      pop\n        /* \"ArrayANDStruct.sol\":1859:1864  break */\n      jump(tag_62)\n        /* \"ArrayANDStruct.sol\":1759:1879  if (students[i].id == _id) {... */\n    tag_68:\n        /* \"ArrayANDStruct.sol\":1740:1743  i++ */\n      dup1\n      dup1\n      0x01\n      add\n      swap2\n      pop\n      pop\n        /* \"ArrayANDStruct.sol\":1702:1889  for (uint i = 0; i < students.length; i++) {... */\n      jump(tag_61)\n    tag_62:\n      pop\n        /* \"ArrayANDStruct.sol\":1527:1895  function addCourse(uint256 _id, string memory _courseName) public {... */\n      pop\n      pop\n      jump\t// out\n        /* \"ArrayANDStruct.sol\":1141:1260  function getStudentName(uint256 index) public view returns (string memory) {... */\n    tag_31:\n        /* \"ArrayANDStruct.sol\":1201:1214  string memory */\n      0x60\n        /* \"ArrayANDStruct.sol\":1233:1241  students */\n      0x00\n        /* \"ArrayANDStruct.sol\":1242:1247  index */\n      dup3\n        /* \"ArrayANDStruct.sol\":1233:1248  students[index] */\n      dup2\n      sload\n      dup2\n      lt\n      tag_75\n      jumpi\n      tag_76\n      tag_66\n      jump\t// in\n    tag_76:\n    tag_75:\n      swap1\n      0x00\n      mstore\n      keccak256(0x00, 0x20)\n      swap1\n      0x04\n      mul\n      add\n        /* \"ArrayANDStruct.sol\":1233:1253  students[index].name */\n      0x01\n      add\n        /* \"ArrayANDStruct.sol\":1226:1253  return students[index].name */\n      dup1\n      sload\n      tag_78\n      swap1\n      tag_46\n      jump\t// in\n    tag_78:\n      dup1\n      0x1f\n      add\n      0x20\n      dup1\n      swap2\n      div\n      mul\n      0x20\n      add\n      mload(0x40)\n      swap1\n      dup2\n      add\n      0x40\n      mstore\n      dup1\n      swap3\n      swap2\n      swap1\n      dup2\n      dup2\n      mstore\n      0x20\n      add\n      dup3\n      dup1\n      sload\n      tag_79\n      swap1\n      tag_46\n      jump\t// in\n    tag_79:\n      dup1\n      iszero\n      tag_80\n      jumpi\n      dup1\n      0x1f\n      lt\n      tag_81\n      jumpi\n      0x0100\n      dup1\n      dup4\n      sload\n      div\n      mul\n      dup4\n      mstore\n      swap2\n      0x20\n      add\n      swap2\n      jump(tag_80)\n    tag_81:\n      dup3\n      add\n      swap2\n      swap1\n      0x00\n      mstore\n      keccak256(0x00, 0x20)\n      swap1\n    tag_82:\n      dup2\n      sload\n      dup2\n      mstore\n      swap1\n      0x01\n      add\n      swap1\n      0x20\n      add\n      dup1\n      dup4\n      gt\n      tag_82\n      jumpi\n      dup3\n      swap1\n      sub\n      0x1f\n      and\n      dup3\n      add\n      swap2\n    tag_80:\n      pop\n      pop\n      pop\n      pop\n      pop\n      swap1\n      pop\n        /* \"ArrayANDStruct.sol\":1141:1260  function getStudentName(uint256 index) public view returns (string memory) {... */\n      swap2\n      swap1\n      pop\n      jump\t// out\n        /* \"ArrayANDStruct.sol\":1313:1471  function getStudentCourse(uint256 index, uint256 courseIndex) public view returns (string memory) {... */\n    tag_37:\n        /* \"ArrayANDStruct.sol\":1396:1409  string memory */\n      0x60\n        /* \"ArrayANDStruct.sol\":1428:1436  students */\n      0x00\n        /* \"ArrayANDStruct.sol\":1437:1442  index */\n      dup4\n        /* \"ArrayANDStruct.sol\":1428:1443  students[index] */\n      dup2\n      sload\n      dup2\n      lt\n      tag_84\n      jumpi\n      tag_85\n      tag_66\n      jump\t// in\n    tag_85:\n    tag_84:\n      swap1\n      0x00\n      mstore\n      keccak256(0x00, 0x20)\n      swap1\n      0x04\n      mul\n      add\n        /* \"ArrayANDStruct.sol\":1428:1451  students[index].courses */\n      0x03\n      add\n        /* \"ArrayANDStruct.sol\":1452:1463  courseIndex */\n      dup3\n        /* \"ArrayANDStruct.sol\":1428:1464  students[index].courses[courseIndex] */\n      dup2\n      sload\n      dup2\n      lt\n      tag_87\n      jumpi\n      tag_88\n      tag_66\n      jump\t// in\n    tag_88:\n    tag_87:\n      swap1\n      0x00\n      mstore\n      keccak256(0x00, 0x20)\n      add\n        /* \"ArrayANDStruct.sol\":1421:1464  return students[index].courses[courseIndex] */\n      dup1\n      sload\n      tag_90\n      swap1\n      tag_46\n      jump\t// in\n    tag_90:\n      dup1\n      0x1f\n      add\n      0x20\n      dup1\n      swap2\n      div\n      mul\n      0x20\n      add\n      mload(0x40)\n      swap1\n      dup2\n      add\n      0x40\n      mstore\n      dup1\n      swap3\n      swap2\n      swap1\n      dup2\n      dup2\n      mstore\n      0x20\n      add\n      dup3\n      dup1\n      sload\n      tag_91\n      swap1\n      tag_46\n      jump\t// in\n    tag_91:\n      dup1\n      iszero\n      tag_92\n      jumpi\n      dup1\n      0x1f\n      lt\n      tag_93\n      jumpi\n      0x0100\n      dup1\n      dup4\n      sload\n      div\n      mul\n      dup4\n      mstore\n      swap2\n      0x20\n      add\n      swap2\n      jump(tag_92)\n    tag_93:\n      dup3\n      add\n      swap2\n      swap1\n      0x00\n      mstore\n      keccak256(0x00, 0x20)\n      swap1\n    tag_94:\n      dup2\n      sload\n      dup2\n      mstore\n      swap1\n      0x01\n      add\n      swap1\n      0x20\n      add\n      dup1\n      dup4\n      gt\n      tag_94\n      jumpi\n      dup3\n      swap1\n      sub\n      0x1f\n      and\n      dup3\n      add\n      swap2\n    tag_92:\n      pop\n      pop\n      pop\n      pop\n      pop\n      swap1\n      pop\n        /* \"ArrayANDStruct.sol\":1313:1471  function getStudentCourse(uint256 index, uint256 courseIndex) public view returns (string memory) {... */\n      swap3\n      swap2\n      pop\n      pop\n      jump\t// out\n        /* \"ArrayANDStruct.sol\":649:1083  function addStudent(... */\n    tag_42:\n        /* \"ArrayANDStruct.sol\":798:823  Student memory newStudent */\n      0x00\n        /* \"ArrayANDStruct.sol\":826:945  Student({... */\n      mload(0x40)\n      dup1\n      0x80\n      add\n      0x40\n      mstore\n      dup1\n        /* \"ArrayANDStruct.sol\":852:855  _id */\n      dup7\n        /* \"ArrayANDStruct.sol\":826:945  Student({... */\n      dup2\n      mstore\n      0x20\n      add\n        /* \"ArrayANDStruct.sol\":875:880  _name */\n      dup6\n        /* \"ArrayANDStruct.sol\":826:945  Student({... */\n      dup2\n      mstore\n      0x20\n      add\n        /* \"ArrayANDStruct.sol\":899:903  _age */\n      dup5\n        /* \"ArrayANDStruct.sol\":826:945  Student({... */\n      dup2\n      mstore\n      0x20\n      add\n        /* \"ArrayANDStruct.sol\":926:934  _courses */\n      dup4\n        /* \"ArrayANDStruct.sol\":826:945  Student({... */\n      dup2\n      mstore\n      pop\n        /* \"ArrayANDStruct.sol\":798:945  Student memory newStudent = Student({... */\n      swap1\n      pop\n        /* \"ArrayANDStruct.sol\":956:964  students */\n      0x00\n        /* \"ArrayANDStruct.sol\":970:980  newStudent */\n      dup2\n        /* \"ArrayANDStruct.sol\":956:981  students.push(newStudent) */\n      swap1\n      dup1\n      0x01\n      dup2\n      sload\n      add\n      dup1\n      dup3\n      sstore\n      dup1\n      swap2\n      pop\n      pop\n      0x01\n      swap1\n      sub\n      swap1\n      0x00\n      mstore\n      keccak256(0x00, 0x20)\n      swap1\n      0x04\n      mul\n      add\n      0x00\n      swap1\n      swap2\n      swap1\n      swap2\n      swap1\n      swap2\n      pop\n      0x00\n      dup3\n      add\n      mload\n      dup2\n      0x00\n      add\n      sstore\n      0x20\n      dup3\n      add\n      mload\n      dup2\n      0x01\n      add\n      swap1\n      dup2\n      tag_97\n      swap2\n      swap1\n      tag_60\n      jump\t// in\n    tag_97:\n      pop\n      0x40\n      dup3\n      add\n      mload\n      dup2\n      0x02\n      add\n      sstore\n      0x60\n      dup3\n      add\n      mload\n      dup2\n      0x03\n      add\n      swap1\n      dup1\n      mload\n      swap1\n      0x20\n      add\n      swap1\n      tag_98\n      swap3\n      swap2\n      swap1\n      tag_99\n      jump\t// in\n    tag_98:\n      pop\n      pop\n      pop\n        /* \"ArrayANDStruct.sol\":1039:1049  newStudent */\n      dup1\n        /* \"ArrayANDStruct.sol\":1020:1031  studentById */\n      0x01\n        /* \"ArrayANDStruct.sol\":1020:1036  studentById[_id] */\n      0x00\n        /* \"ArrayANDStruct.sol\":1032:1035  _id */\n      dup8\n        /* \"ArrayANDStruct.sol\":1020:1036  studentById[_id] */\n      dup2\n      mstore\n      0x20\n      add\n      swap1\n      dup2\n      mstore\n      0x20\n      add\n      0x00\n      keccak256\n        /* \"ArrayANDStruct.sol\":1020:1049  studentById[_id] = newStudent */\n      0x00\n      dup3\n      add\n      mload\n      dup2\n      0x00\n      add\n      sstore\n      0x20\n      dup3\n      add\n      mload\n      dup2\n      0x01\n      add\n      swap1\n      dup2\n      tag_100\n      swap2\n      swap1\n      tag_60\n      jump\t// in\n    tag_100:\n      pop\n      0x40\n      dup3\n      add\n      mload\n      dup2\n      0x02\n      add\n      sstore\n      0x60\n      dup3\n      add\n      mload\n      dup2\n      0x03\n      add\n      swap1\n      dup1\n      mload\n      swap1\n      0x20\n      add\n      swap1\n      tag_101\n      swap3\n      swap2\n      swap1\n      tag_99\n      jump\t// in\n    tag_101:\n      pop\n      swap1\n      pop\n      pop\n        /* \"ArrayANDStruct.sol\":788:1083  {... */\n      pop\n        /* \"ArrayANDStruct.sol\":649:1083  function addStudent(... */\n      pop\n      pop\n      pop\n      pop\n      jump\t// out\n    tag_99:\n      dup3\n      dup1\n      sload\n      dup3\n      dup3\n      sstore\n      swap1\n      0x00\n      mstore\n      keccak256(0x00, 0x20)\n      swap1\n      dup2\n      add\n      swap3\n      dup3\n      iszero\n      tag_102\n      jumpi\n      swap2\n      0x20\n      mul\n      dup3\n      add\n    tag_103:\n      dup3\n      dup2\n      gt\n      iszero\n      tag_104\n      jumpi\n      dup3\n      mload\n      dup3\n      swap1\n      dup2\n      tag_105\n      swap2\n      swap1\n      tag_60\n      jump\t// in\n    tag_105:\n      pop\n      swap2\n      0x20\n      add\n      swap2\n      swap1\n      0x01\n      add\n      swap1\n      jump(tag_103)\n    tag_104:\n    tag_102:\n      pop\n      swap1\n      pop\n      tag_106\n      swap2\n      swap1\n      tag_107\n      jump\t// in\n    tag_106:\n      pop\n      swap1\n      jump\t// out\n    tag_107:\n    tag_108:\n      dup1\n      dup3\n      gt\n      iszero\n      tag_109\n      jumpi\n      0x00\n      dup2\n      dup2\n      tag_110\n      swap2\n      swap1\n      tag_111\n      jump\t// in\n    tag_110:\n      pop\n      0x01\n      add\n      jump(tag_108)\n    tag_109:\n      pop\n      swap1\n      jump\t// out\n    tag_111:\n      pop\n      dup1\n      sload\n      tag_112\n      swap1\n      tag_46\n      jump\t// in\n    tag_112:\n      0x00\n      dup3\n      sstore\n      dup1\n      0x1f\n      lt\n      tag_114\n      jumpi\n      pop\n      jump(tag_113)\n    tag_114:\n      0x1f\n      add\n      0x20\n      swap1\n      div\n      swap1\n      0x00\n      mstore\n      keccak256(0x00, 0x20)\n      swap1\n      dup2\n      add\n      swap1\n      tag_115\n      swap2\n      swap1\n      tag_116\n      jump\t// in\n    tag_115:\n    tag_113:\n      pop\n      jump\t// out\n    tag_116:\n    tag_117:\n      dup1\n      dup3\n      gt\n      iszero\n      tag_118\n      jumpi\n      0x00\n      dup2\n      0x00\n      swap1\n      sstore\n      pop\n      0x01\n      add\n      jump(tag_117)\n    tag_118:\n      pop\n      swap1\n      jump\t// out\n        /* \"#utility.yul\":7:82   */\n    tag_119:\n        /* \"#utility.yul\":40:46   */\n      0x00\n        /* \"#utility.yul\":73:75   */\n      0x40\n        /* \"#utility.yul\":67:76   */\n      mload\n        /* \"#utility.yul\":57:76   */\n      swap1\n      pop\n        /* \"#utility.yul\":7:82   */\n      swap1\n      jump\t// out\n        /* \"#utility.yul\":88:205   */\n    tag_120:\n        /* \"#utility.yul\":197:198   */\n      0x00\n        /* \"#utility.yul\":194:195   */\n      dup1\n        /* \"#utility.yul\":187:199   */\n      revert\n        /* \"#utility.yul\":211:328   */\n    tag_121:\n        /* \"#utility.yul\":320:321   */\n      0x00\n        /* \"#utility.yul\":317:318   */\n      dup1\n        /* \"#utility.yul\":310:322   */\n      revert\n        /* \"#utility.yul\":334:411   */\n    tag_122:\n        /* \"#utility.yul\":371:378   */\n      0x00\n        /* \"#utility.yul\":400:405   */\n      dup2\n        /* \"#utility.yul\":389:405   */\n      swap1\n      pop\n        /* \"#utility.yul\":334:411   */\n      swap2\n      swap1\n      pop\n      jump\t// out\n        /* \"#utility.yul\":417:539   */\n    tag_123:\n        /* \"#utility.yul\":490:514   */\n      tag_166\n        /* \"#utility.yul\":508:513   */\n      dup2\n        /* \"#utility.yul\":490:514   */\n      tag_122\n      jump\t// in\n    tag_166:\n        /* \"#utility.yul\":483:488   */\n      dup2\n        /* \"#utility.yul\":480:515   */\n      eq\n        /* \"#utility.yul\":470:533   */\n      tag_167\n      jumpi\n        /* \"#utility.yul\":529:530   */\n      0x00\n        /* \"#utility.yul\":526:527   */\n      dup1\n        /* \"#utility.yul\":519:531   */\n      revert\n        /* \"#utility.yul\":470:533   */\n    tag_167:\n        /* \"#utility.yul\":417:539   */\n      pop\n      jump\t// out\n        /* \"#utility.yul\":545:684   */\n    tag_124:\n        /* \"#utility.yul\":591:596   */\n      0x00\n        /* \"#utility.yul\":629:635   */\n      dup2\n        /* \"#utility.yul\":616:636   */\n      calldataload\n        /* \"#utility.yul\":607:636   */\n      swap1\n      pop\n        /* \"#utility.yul\":645:678   */\n      tag_169\n        /* \"#utility.yul\":672:677   */\n      dup2\n        /* \"#utility.yul\":645:678   */\n      tag_123\n      jump\t// in\n    tag_169:\n        /* \"#utility.yul\":545:684   */\n      swap3\n      swap2\n      pop\n      pop\n      jump\t// out\n        /* \"#utility.yul\":690:1019   */\n    tag_13:\n        /* \"#utility.yul\":749:755   */\n      0x00\n        /* \"#utility.yul\":798:800   */\n      0x20\n        /* \"#utility.yul\":786:795   */\n      dup3\n        /* \"#utility.yul\":777:784   */\n      dup5\n        /* \"#utility.yul\":773:796   */\n      sub\n        /* \"#utility.yul\":769:801   */\n      slt\n        /* \"#utility.yul\":766:885   */\n      iszero\n      tag_171\n      jumpi\n        /* \"#utility.yul\":804:883   */\n      tag_172\n      tag_120\n      jump\t// in\n    tag_172:\n        /* \"#utility.yul\":766:885   */\n    tag_171:\n        /* \"#utility.yul\":924:925   */\n      0x00\n        /* \"#utility.yul\":949:1002   */\n      tag_173\n        /* \"#utility.yul\":994:1001   */\n      dup5\n        /* \"#utility.yul\":985:991   */\n      dup3\n        /* \"#utility.yul\":974:983   */\n      dup6\n        /* \"#utility.yul\":970:992   */\n      add\n        /* \"#utility.yul\":949:1002   */\n      tag_124\n      jump\t// in\n    tag_173:\n        /* \"#utility.yul\":939:1002   */\n      swap2\n      pop\n        /* \"#utility.yul\":895:1012   */\n      pop\n        /* \"#utility.yul\":690:1019   */\n      swap3\n      swap2\n      pop\n      pop\n      jump\t// out\n        /* \"#utility.yul\":1025:1143   */\n    tag_125:\n        /* \"#utility.yul\":1112:1136   */\n      tag_175\n        /* \"#utility.yul\":1130:1135   */\n      dup2\n        /* \"#utility.yul\":1112:1136   */\n      tag_122\n      jump\t// in\n    tag_175:\n        /* \"#utility.yul\":1107:1110   */\n      dup3\n        /* \"#utility.yul\":1100:1137   */\n      mstore\n        /* \"#utility.yul\":1025:1143   */\n      pop\n      pop\n      jump\t// out\n        /* \"#utility.yul\":1149:1248   */\n    tag_126:\n        /* \"#utility.yul\":1201:1207   */\n      0x00\n        /* \"#utility.yul\":1235:1240   */\n      dup2\n        /* \"#utility.yul\":1229:1241   */\n      mload\n        /* \"#utility.yul\":1219:1241   */\n      swap1\n      pop\n        /* \"#utility.yul\":1149:1248   */\n      swap2\n      swap1\n      pop\n      jump\t// out\n        /* \"#utility.yul\":1254:1423   */\n    tag_127:\n        /* \"#utility.yul\":1338:1349   */\n      0x00\n        /* \"#utility.yul\":1372:1378   */\n      dup3\n        /* \"#utility.yul\":1367:1370   */\n      dup3\n        /* \"#utility.yul\":1360:1379   */\n      mstore\n        /* \"#utility.yul\":1412:1416   */\n      0x20\n        /* \"#utility.yul\":1407:1410   */\n      dup3\n        /* \"#utility.yul\":1403:1417   */\n      add\n        /* \"#utility.yul\":1388:1417   */\n      swap1\n      pop\n        /* \"#utility.yul\":1254:1423   */\n      swap3\n      swap2\n      pop\n      pop\n      jump\t// out\n        /* \"#utility.yul\":1429:1568   */\n    tag_128:\n        /* \"#utility.yul\":1518:1524   */\n      dup3\n        /* \"#utility.yul\":1513:1516   */\n      dup2\n        /* \"#utility.yul\":1508:1511   */\n      dup4\n        /* \"#utility.yul\":1502:1525   */\n      mcopy\n        /* \"#utility.yul\":1559:1560   */\n      0x00\n        /* \"#utility.yul\":1550:1556   */\n      dup4\n        /* \"#utility.yul\":1545:1548   */\n      dup4\n        /* \"#utility.yul\":1541:1557   */\n      add\n        /* \"#utility.yul\":1534:1561   */\n      mstore\n        /* \"#utility.yul\":1429:1568   */\n      pop\n      pop\n      pop\n      jump\t// out\n        /* \"#utility.yul\":1574:1676   */\n    tag_129:\n        /* \"#utility.yul\":1615:1621   */\n      0x00\n        /* \"#utility.yul\":1666:1668   */\n      0x1f\n        /* \"#utility.yul\":1662:1669   */\n      not\n        /* \"#utility.yul\":1657:1659   */\n      0x1f\n        /* \"#utility.yul\":1650:1655   */\n      dup4\n        /* \"#utility.yul\":1646:1660   */\n      add\n        /* \"#utility.yul\":1642:1670   */\n      and\n        /* \"#utility.yul\":1632:1670   */\n      swap1\n      pop\n        /* \"#utility.yul\":1574:1676   */\n      swap2\n      swap1\n      pop\n      jump\t// out\n        /* \"#utility.yul\":1682:2059   */\n    tag_130:\n        /* \"#utility.yul\":1770:1773   */\n      0x00\n        /* \"#utility.yul\":1798:1837   */\n      tag_181\n        /* \"#utility.yul\":1831:1836   */\n      dup3\n        /* \"#utility.yul\":1798:1837   */\n      tag_126\n      jump\t// in\n    tag_181:\n        /* \"#utility.yul\":1853:1924   */\n      tag_182\n        /* \"#utility.yul\":1917:1923   */\n      dup2\n        /* \"#utility.yul\":1912:1915   */\n      dup6\n        /* \"#utility.yul\":1853:1924   */\n      tag_127\n      jump\t// in\n    tag_182:\n        /* \"#utility.yul\":1846:1924   */\n      swap4\n      pop\n        /* \"#utility.yul\":1933:1998   */\n      tag_183\n        /* \"#utility.yul\":1991:1997   */\n      dup2\n        /* \"#utility.yul\":1986:1989   */\n      dup6\n        /* \"#utility.yul\":1979:1983   */\n      0x20\n        /* \"#utility.yul\":1972:1977   */\n      dup7\n        /* \"#utility.yul\":1968:1984   */\n      add\n        /* \"#utility.yul\":1933:1998   */\n      tag_128\n      jump\t// in\n    tag_183:\n        /* \"#utility.yul\":2023:2052   */\n      tag_184\n        /* \"#utility.yul\":2045:2051   */\n      dup2\n        /* \"#utility.yul\":2023:2052   */\n      tag_129\n      jump\t// in\n    tag_184:\n        /* \"#utility.yul\":2018:2021   */\n      dup5\n        /* \"#utility.yul\":2014:2053   */\n      add\n        /* \"#utility.yul\":2007:2053   */\n      swap2\n      pop\n        /* \"#utility.yul\":1774:2059   */\n      pop\n        /* \"#utility.yul\":1682:2059   */\n      swap3\n      swap2\n      pop\n      pop\n      jump\t// out\n        /* \"#utility.yul\":2065:2598   */\n    tag_16:\n        /* \"#utility.yul\":2234:2238   */\n      0x00\n        /* \"#utility.yul\":2272:2274   */\n      0x60\n        /* \"#utility.yul\":2261:2270   */\n      dup3\n        /* \"#utility.yul\":2257:2275   */\n      add\n        /* \"#utility.yul\":2249:2275   */\n      swap1\n      pop\n        /* \"#utility.yul\":2285:2356   */\n      tag_186\n        /* \"#utility.yul\":2353:2354   */\n      0x00\n        /* \"#utility.yul\":2342:2351   */\n      dup4\n        /* \"#utility.yul\":2338:2355   */\n      add\n        /* \"#utility.yul\":2329:2335   */\n      dup7\n        /* \"#utility.yul\":2285:2356   */\n      tag_125\n      jump\t// in\n    tag_186:\n        /* \"#utility.yul\":2403:2412   */\n      dup2\n        /* \"#utility.yul\":2397:2401   */\n      dup2\n        /* \"#utility.yul\":2393:2413   */\n      sub\n        /* \"#utility.yul\":2388:2390   */\n      0x20\n        /* \"#utility.yul\":2377:2386   */\n      dup4\n        /* \"#utility.yul\":2373:2391   */\n      add\n        /* \"#utility.yul\":2366:2414   */\n      mstore\n        /* \"#utility.yul\":2431:2509   */\n      tag_187\n        /* \"#utility.yul\":2504:2508   */\n      dup2\n        /* \"#utility.yul\":2495:2501   */\n      dup6\n        /* \"#utility.yul\":2431:2509   */\n      tag_130\n      jump\t// in\n    tag_187:\n        /* \"#utility.yul\":2423:2509   */\n      swap1\n      pop\n        /* \"#utility.yul\":2519:2591   */\n      tag_188\n        /* \"#utility.yul\":2587:2589   */\n      0x40\n        /* \"#utility.yul\":2576:2585   */\n      dup4\n        /* \"#utility.yul\":2572:2590   */\n      add\n        /* \"#utility.yul\":2563:2569   */\n      dup5\n        /* \"#utility.yul\":2519:2591   */\n      tag_125\n      jump\t// in\n    tag_188:\n        /* \"#utility.yul\":2065:2598   */\n      swap5\n      swap4\n      pop\n      pop\n      pop\n      pop\n      jump\t// out\n        /* \"#utility.yul\":2604:2826   */\n    tag_24:\n        /* \"#utility.yul\":2697:2701   */\n      0x00\n        /* \"#utility.yul\":2735:2737   */\n      0x20\n        /* \"#utility.yul\":2724:2733   */\n      dup3\n        /* \"#utility.yul\":2720:2738   */\n      add\n        /* \"#utility.yul\":2712:2738   */\n      swap1\n      pop\n        /* \"#utility.yul\":2748:2819   */\n      tag_190\n        /* \"#utility.yul\":2816:2817   */\n      0x00\n        /* \"#utility.yul\":2805:2814   */\n      dup4\n        /* \"#utility.yul\":2801:2818   */\n      add\n        /* \"#utility.yul\":2792:2798   */\n      dup5\n        /* \"#utility.yul\":2748:2819   */\n      tag_125\n      jump\t// in\n    tag_190:\n        /* \"#utility.yul\":2604:2826   */\n      swap3\n      swap2\n      pop\n      pop\n      jump\t// out\n        /* \"#utility.yul\":2832:2949   */\n    tag_131:\n        /* \"#utility.yul\":2941:2942   */\n      0x00\n        /* \"#utility.yul\":2938:2939   */\n      dup1\n        /* \"#utility.yul\":2931:2943   */\n      revert\n        /* \"#utility.yul\":2955:3072   */\n    tag_132:\n        /* \"#utility.yul\":3064:3065   */\n      0x00\n        /* \"#utility.yul\":3061:3062   */\n      dup1\n        /* \"#utility.yul\":3054:3066   */\n      revert\n        /* \"#utility.yul\":3078:3258   */\n    tag_133:\n        /* \"#utility.yul\":3126:3203   */\n      0x4e487b7100000000000000000000000000000000000000000000000000000000\n        /* \"#utility.yul\":3123:3124   */\n      0x00\n        /* \"#utility.yul\":3116:3204   */\n      mstore\n        /* \"#utility.yul\":3223:3227   */\n      0x41\n        /* \"#utility.yul\":3220:3221   */\n      0x04\n        /* \"#utility.yul\":3213:3228   */\n      mstore\n        /* \"#utility.yul\":3247:3251   */\n      0x24\n        /* \"#utility.yul\":3244:3245   */\n      0x00\n        /* \"#utility.yul\":3237:3252   */\n      revert\n        /* \"#utility.yul\":3264:3545   */\n    tag_134:\n        /* \"#utility.yul\":3347:3374   */\n      tag_195\n        /* \"#utility.yul\":3369:3373   */\n      dup3\n        /* \"#utility.yul\":3347:3374   */\n      tag_129\n      jump\t// in\n    tag_195:\n        /* \"#utility.yul\":3339:3345   */\n      dup2\n        /* \"#utility.yul\":3335:3375   */\n      add\n        /* \"#utility.yul\":3477:3483   */\n      dup2\n        /* \"#utility.yul\":3465:3475   */\n      dup2\n        /* \"#utility.yul\":3462:3484   */\n      lt\n        /* \"#utility.yul\":3441:3459   */\n      0xffffffffffffffff\n        /* \"#utility.yul\":3429:3439   */\n      dup3\n        /* \"#utility.yul\":3426:3460   */\n      gt\n        /* \"#utility.yul\":3423:3485   */\n      or\n        /* \"#utility.yul\":3420:3508   */\n      iszero\n      tag_196\n      jumpi\n        /* \"#utility.yul\":3488:3506   */\n      tag_197\n      tag_133\n      jump\t// in\n    tag_197:\n        /* \"#utility.yul\":3420:3508   */\n    tag_196:\n        /* \"#utility.yul\":3528:3538   */\n      dup1\n        /* \"#utility.yul\":3524:3526   */\n      0x40\n        /* \"#utility.yul\":3517:3539   */\n      mstore\n        /* \"#utility.yul\":3307:3545   */\n      pop\n        /* \"#utility.yul\":3264:3545   */\n      pop\n      pop\n      jump\t// out\n        /* \"#utility.yul\":3551:3680   */\n    tag_135:\n        /* \"#utility.yul\":3585:3591   */\n      0x00\n        /* \"#utility.yul\":3612:3632   */\n      tag_199\n      tag_119\n      jump\t// in\n    tag_199:\n        /* \"#utility.yul\":3602:3632   */\n      swap1\n      pop\n        /* \"#utility.yul\":3641:3674   */\n      tag_200\n        /* \"#utility.yul\":3669:3673   */\n      dup3\n        /* \"#utility.yul\":3661:3667   */\n      dup3\n        /* \"#utility.yul\":3641:3674   */\n      tag_134\n      jump\t// in\n    tag_200:\n        /* \"#utility.yul\":3551:3680   */\n      swap2\n      swap1\n      pop\n      jump\t// out\n        /* \"#utility.yul\":3686:3994   */\n    tag_136:\n        /* \"#utility.yul\":3748:3752   */\n      0x00\n        /* \"#utility.yul\":3838:3856   */\n      0xffffffffffffffff\n        /* \"#utility.yul\":3830:3836   */\n      dup3\n        /* \"#utility.yul\":3827:3857   */\n      gt\n        /* \"#utility.yul\":3824:3880   */\n      iszero\n      tag_202\n      jumpi\n        /* \"#utility.yul\":3860:3878   */\n      tag_203\n      tag_133\n      jump\t// in\n    tag_203:\n        /* \"#utility.yul\":3824:3880   */\n    tag_202:\n        /* \"#utility.yul\":3898:3927   */\n      tag_204\n        /* \"#utility.yul\":3920:3926   */\n      dup3\n        /* \"#utility.yul\":3898:3927   */\n      tag_129\n      jump\t// in\n    tag_204:\n        /* \"#utility.yul\":3890:3927   */\n      swap1\n      pop\n        /* \"#utility.yul\":3982:3986   */\n      0x20\n        /* \"#utility.yul\":3976:3980   */\n      dup2\n        /* \"#utility.yul\":3972:3987   */\n      add\n        /* \"#utility.yul\":3964:3987   */\n      swap1\n      pop\n        /* \"#utility.yul\":3686:3994   */\n      swap2\n      swap1\n      pop\n      jump\t// out\n        /* \"#utility.yul\":4000:4148   */\n    tag_137:\n        /* \"#utility.yul\":4098:4104   */\n      dup3\n        /* \"#utility.yul\":4093:4096   */\n      dup2\n        /* \"#utility.yul\":4088:4091   */\n      dup4\n        /* \"#utility.yul\":4075:4105   */\n      calldatacopy\n        /* \"#utility.yul\":4139:4140   */\n      0x00\n        /* \"#utility.yul\":4130:4136   */\n      dup4\n        /* \"#utility.yul\":4125:4128   */\n      dup4\n        /* \"#utility.yul\":4121:4137   */\n      add\n        /* \"#utility.yul\":4114:4141   */\n      mstore\n        /* \"#utility.yul\":4000:4148   */\n      pop\n      pop\n      pop\n      jump\t// out\n        /* \"#utility.yul\":4154:4579   */\n    tag_138:\n        /* \"#utility.yul\":4232:4237   */\n      0x00\n        /* \"#utility.yul\":4257:4323   */\n      tag_207\n        /* \"#utility.yul\":4273:4322   */\n      tag_208\n        /* \"#utility.yul\":4315:4321   */\n      dup5\n        /* \"#utility.yul\":4273:4322   */\n      tag_136\n      jump\t// in\n    tag_208:\n        /* \"#utility.yul\":4257:4323   */\n      tag_135\n      jump\t// in\n    tag_207:\n        /* \"#utility.yul\":4248:4323   */\n      swap1\n      pop\n        /* \"#utility.yul\":4346:4352   */\n      dup3\n        /* \"#utility.yul\":4339:4344   */\n      dup2\n        /* \"#utility.yul\":4332:4353   */\n      mstore\n        /* \"#utility.yul\":4384:4388   */\n      0x20\n        /* \"#utility.yul\":4377:4382   */\n      dup2\n        /* \"#utility.yul\":4373:4389   */\n      add\n        /* \"#utility.yul\":4422:4425   */\n      dup5\n        /* \"#utility.yul\":4413:4419   */\n      dup5\n        /* \"#utility.yul\":4408:4411   */\n      dup5\n        /* \"#utility.yul\":4404:4420   */\n      add\n        /* \"#utility.yul\":4401:4426   */\n      gt\n        /* \"#utility.yul\":4398:4510   */\n      iszero\n      tag_209\n      jumpi\n        /* \"#utility.yul\":4429:4508   */\n      tag_210\n      tag_132\n      jump\t// in\n    tag_210:\n        /* \"#utility.yul\":4398:4510   */\n    tag_209:\n        /* \"#utility.yul\":4519:4573   */\n      tag_211\n        /* \"#utility.yul\":4566:4572   */\n      dup5\n        /* \"#utility.yul\":4561:4564   */\n      dup3\n        /* \"#utility.yul\":4556:4559   */\n      dup6\n        /* \"#utility.yul\":4519:4573   */\n      tag_137\n      jump\t// in\n    tag_211:\n        /* \"#utility.yul\":4238:4579   */\n      pop\n        /* \"#utility.yul\":4154:4579   */\n      swap4\n      swap3\n      pop\n      pop\n      pop\n      jump\t// out\n        /* \"#utility.yul\":4599:4939   */\n    tag_139:\n        /* \"#utility.yul\":4655:4660   */\n      0x00\n        /* \"#utility.yul\":4704:4707   */\n      dup3\n        /* \"#utility.yul\":4697:4701   */\n      0x1f\n        /* \"#utility.yul\":4689:4695   */\n      dup4\n        /* \"#utility.yul\":4685:4702   */\n      add\n        /* \"#utility.yul\":4681:4708   */\n      slt\n        /* \"#utility.yul\":4671:4793   */\n      tag_213\n      jumpi\n        /* \"#utility.yul\":4712:4791   */\n      tag_214\n      tag_131\n      jump\t// in\n    tag_214:\n        /* \"#utility.yul\":4671:4793   */\n    tag_213:\n        /* \"#utility.yul\":4829:4835   */\n      dup2\n        /* \"#utility.yul\":4816:4836   */\n      calldataload\n        /* \"#utility.yul\":4854:4933   */\n      tag_215\n        /* \"#utility.yul\":4929:4932   */\n      dup5\n        /* \"#utility.yul\":4921:4927   */\n      dup3\n        /* \"#utility.yul\":4914:4918   */\n      0x20\n        /* \"#utility.yul\":4906:4912   */\n      dup7\n        /* \"#utility.yul\":4902:4919   */\n      add\n        /* \"#utility.yul\":4854:4933   */\n      tag_138\n      jump\t// in\n    tag_215:\n        /* \"#utility.yul\":4845:4933   */\n      swap2\n      pop\n        /* \"#utility.yul\":4661:4939   */\n      pop\n        /* \"#utility.yul\":4599:4939   */\n      swap3\n      swap2\n      pop\n      pop\n      jump\t// out\n        /* \"#utility.yul\":4945:5599   */\n    tag_27:\n        /* \"#utility.yul\":5023:5029   */\n      0x00\n        /* \"#utility.yul\":5031:5037   */\n      dup1\n        /* \"#utility.yul\":5080:5082   */\n      0x40\n        /* \"#utility.yul\":5068:5077   */\n      dup4\n        /* \"#utility.yul\":5059:5066   */\n      dup6\n        /* \"#utility.yul\":5055:5078   */\n      sub\n        /* \"#utility.yul\":5051:5083   */\n      slt\n        /* \"#utility.yul\":5048:5167   */\n      iszero\n      tag_217\n      jumpi\n        /* \"#utility.yul\":5086:5165   */\n      tag_218\n      tag_120\n      jump\t// in\n    tag_218:\n        /* \"#utility.yul\":5048:5167   */\n    tag_217:\n        /* \"#utility.yul\":5206:5207   */\n      0x00\n        /* \"#utility.yul\":5231:5284   */\n      tag_219\n        /* \"#utility.yul\":5276:5283   */\n      dup6\n        /* \"#utility.yul\":5267:5273   */\n      dup3\n        /* \"#utility.yul\":5256:5265   */\n      dup7\n        /* \"#utility.yul\":5252:5274   */\n      add\n        /* \"#utility.yul\":5231:5284   */\n      tag_124\n      jump\t// in\n    tag_219:\n        /* \"#utility.yul\":5221:5284   */\n      swap3\n      pop\n        /* \"#utility.yul\":5177:5294   */\n      pop\n        /* \"#utility.yul\":5361:5363   */\n      0x20\n        /* \"#utility.yul\":5350:5359   */\n      dup4\n        /* \"#utility.yul\":5346:5364   */\n      add\n        /* \"#utility.yul\":5333:5365   */\n      calldataload\n        /* \"#utility.yul\":5392:5410   */\n      0xffffffffffffffff\n        /* \"#utility.yul\":5384:5390   */\n      dup2\n        /* \"#utility.yul\":5381:5411   */\n      gt\n        /* \"#utility.yul\":5378:5495   */\n      iszero\n      tag_220\n      jumpi\n        /* \"#utility.yul\":5414:5493   */\n      tag_221\n      tag_121\n      jump\t// in\n    tag_221:\n        /* \"#utility.yul\":5378:5495   */\n    tag_220:\n        /* \"#utility.yul\":5519:5582   */\n      tag_222\n        /* \"#utility.yul\":5574:5581   */\n      dup6\n        /* \"#utility.yul\":5565:5571   */\n      dup3\n        /* \"#utility.yul\":5554:5563   */\n      dup7\n        /* \"#utility.yul\":5550:5572   */\n      add\n        /* \"#utility.yul\":5519:5582   */\n      tag_139\n      jump\t// in\n    tag_222:\n        /* \"#utility.yul\":5509:5582   */\n      swap2\n      pop\n        /* \"#utility.yul\":5304:5592   */\n      pop\n        /* \"#utility.yul\":4945:5599   */\n      swap3\n      pop\n      swap3\n      swap1\n      pop\n      jump\t// out\n        /* \"#utility.yul\":5605:5918   */\n    tag_33:\n        /* \"#utility.yul\":5718:5722   */\n      0x00\n        /* \"#utility.yul\":5756:5758   */\n      0x20\n        /* \"#utility.yul\":5745:5754   */\n      dup3\n        /* \"#utility.yul\":5741:5759   */\n      add\n        /* \"#utility.yul\":5733:5759   */\n      swap1\n      pop\n        /* \"#utility.yul\":5805:5814   */\n      dup2\n        /* \"#utility.yul\":5799:5803   */\n      dup2\n        /* \"#utility.yul\":5795:5815   */\n      sub\n        /* \"#utility.yul\":5791:5792   */\n      0x00\n        /* \"#utility.yul\":5780:5789   */\n      dup4\n        /* \"#utility.yul\":5776:5793   */\n      add\n        /* \"#utility.yul\":5769:5816   */\n      mstore\n        /* \"#utility.yul\":5833:5911   */\n      tag_224\n        /* \"#utility.yul\":5906:5910   */\n      dup2\n        /* \"#utility.yul\":5897:5903   */\n      dup5\n        /* \"#utility.yul\":5833:5911   */\n      tag_130\n      jump\t// in\n    tag_224:\n        /* \"#utility.yul\":5825:5911   */\n      swap1\n      pop\n        /* \"#utility.yul\":5605:5918   */\n      swap3\n      swap2\n      pop\n      pop\n      jump\t// out\n        /* \"#utility.yul\":5924:6398   */\n    tag_36:\n        /* \"#utility.yul\":5992:5998   */\n      0x00\n        /* \"#utility.yul\":6000:6006   */\n      dup1\n        /* \"#utility.yul\":6049:6051   */\n      0x40\n        /* \"#utility.yul\":6037:6046   */\n      dup4\n        /* \"#utility.yul\":6028:6035   */\n      dup6\n        /* \"#utility.yul\":6024:6047   */\n      sub\n        /* \"#utility.yul\":6020:6052   */\n      slt\n        /* \"#utility.yul\":6017:6136   */\n      iszero\n      tag_226\n      jumpi\n        /* \"#utility.yul\":6055:6134   */\n      tag_227\n      tag_120\n      jump\t// in\n    tag_227:\n        /* \"#utility.yul\":6017:6136   */\n    tag_226:\n        /* \"#utility.yul\":6175:6176   */\n      0x00\n        /* \"#utility.yul\":6200:6253   */\n      tag_228\n        /* \"#utility.yul\":6245:6252   */\n      dup6\n        /* \"#utility.yul\":6236:6242   */\n      dup3\n        /* \"#utility.yul\":6225:6234   */\n      dup7\n        /* \"#utility.yul\":6221:6243   */\n      add\n        /* \"#utility.yul\":6200:6253   */\n      tag_124\n      jump\t// in\n    tag_228:\n        /* \"#utility.yul\":6190:6253   */\n      swap3\n      pop\n        /* \"#utility.yul\":6146:6263   */\n      pop\n        /* \"#utility.yul\":6302:6304   */\n      0x20\n        /* \"#utility.yul\":6328:6381   */\n      tag_229\n        /* \"#utility.yul\":6373:6380   */\n      dup6\n        /* \"#utility.yul\":6364:6370   */\n      dup3\n        /* \"#utility.yul\":6353:6362   */\n      dup7\n        /* \"#utility.yul\":6349:6371   */\n      add\n        /* \"#utility.yul\":6328:6381   */\n      tag_124\n      jump\t// in\n    tag_229:\n        /* \"#utility.yul\":6318:6381   */\n      swap2\n      pop\n        /* \"#utility.yul\":6273:6391   */\n      pop\n        /* \"#utility.yul\":5924:6398   */\n      swap3\n      pop\n      swap3\n      swap1\n      pop\n      jump\t// out\n        /* \"#utility.yul\":6404:6725   */\n    tag_140:\n        /* \"#utility.yul\":6491:6495   */\n      0x00\n        /* \"#utility.yul\":6581:6599   */\n      0xffffffffffffffff\n        /* \"#utility.yul\":6573:6579   */\n      dup3\n        /* \"#utility.yul\":6570:6600   */\n      gt\n        /* \"#utility.yul\":6567:6623   */\n      iszero\n      tag_231\n      jumpi\n        /* \"#utility.yul\":6603:6621   */\n      tag_232\n      tag_133\n      jump\t// in\n    tag_232:\n        /* \"#utility.yul\":6567:6623   */\n    tag_231:\n        /* \"#utility.yul\":6653:6657   */\n      0x20\n        /* \"#utility.yul\":6645:6651   */\n      dup3\n        /* \"#utility.yul\":6641:6658   */\n      mul\n        /* \"#utility.yul\":6633:6658   */\n      swap1\n      pop\n        /* \"#utility.yul\":6713:6717   */\n      0x20\n        /* \"#utility.yul\":6707:6711   */\n      dup2\n        /* \"#utility.yul\":6703:6718   */\n      add\n        /* \"#utility.yul\":6695:6718   */\n      swap1\n      pop\n        /* \"#utility.yul\":6404:6725   */\n      swap2\n      swap1\n      pop\n      jump\t// out\n        /* \"#utility.yul\":6731:6848   */\n    tag_141:\n        /* \"#utility.yul\":6840:6841   */\n      0x00\n        /* \"#utility.yul\":6837:6838   */\n      dup1\n        /* \"#utility.yul\":6830:6842   */\n      revert\n        /* \"#utility.yul\":6870:7815   */\n    tag_142:\n        /* \"#utility.yul\":6976:6981   */\n      0x00\n        /* \"#utility.yul\":7001:7092   */\n      tag_235\n        /* \"#utility.yul\":7017:7091   */\n      tag_236\n        /* \"#utility.yul\":7084:7090   */\n      dup5\n        /* \"#utility.yul\":7017:7091   */\n      tag_140\n      jump\t// in\n    tag_236:\n        /* \"#utility.yul\":7001:7092   */\n      tag_135\n      jump\t// in\n    tag_235:\n        /* \"#utility.yul\":6992:7092   */\n      swap1\n      pop\n        /* \"#utility.yul\":7112:7117   */\n      dup1\n        /* \"#utility.yul\":7141:7147   */\n      dup4\n        /* \"#utility.yul\":7134:7139   */\n      dup3\n        /* \"#utility.yul\":7127:7148   */\n      mstore\n        /* \"#utility.yul\":7175:7179   */\n      0x20\n        /* \"#utility.yul\":7168:7173   */\n      dup3\n        /* \"#utility.yul\":7164:7180   */\n      add\n        /* \"#utility.yul\":7157:7180   */\n      swap1\n      pop\n        /* \"#utility.yul\":7228:7232   */\n      0x20\n        /* \"#utility.yul\":7220:7226   */\n      dup5\n        /* \"#utility.yul\":7216:7233   */\n      mul\n        /* \"#utility.yul\":7208:7214   */\n      dup4\n        /* \"#utility.yul\":7204:7234   */\n      add\n        /* \"#utility.yul\":7257:7260   */\n      dup6\n        /* \"#utility.yul\":7249:7255   */\n      dup2\n        /* \"#utility.yul\":7246:7261   */\n      gt\n        /* \"#utility.yul\":7243:7365   */\n      iszero\n      tag_237\n      jumpi\n        /* \"#utility.yul\":7276:7355   */\n      tag_238\n      tag_141\n      jump\t// in\n    tag_238:\n        /* \"#utility.yul\":7243:7365   */\n    tag_237:\n        /* \"#utility.yul\":7391:7397   */\n      dup4\n        /* \"#utility.yul\":7374:7809   */\n    tag_239:\n        /* \"#utility.yul\":7408:7414   */\n      dup2\n        /* \"#utility.yul\":7403:7406   */\n      dup2\n        /* \"#utility.yul\":7400:7415   */\n      lt\n        /* \"#utility.yul\":7374:7809   */\n      iszero\n      tag_241\n      jumpi\n        /* \"#utility.yul\":7497:7500   */\n      dup1\n        /* \"#utility.yul\":7484:7501   */\n      calldataload\n        /* \"#utility.yul\":7533:7551   */\n      0xffffffffffffffff\n        /* \"#utility.yul\":7520:7531   */\n      dup2\n        /* \"#utility.yul\":7517:7552   */\n      gt\n        /* \"#utility.yul\":7514:7636   */\n      iszero\n      tag_242\n      jumpi\n        /* \"#utility.yul\":7555:7634   */\n      tag_243\n      tag_131\n      jump\t// in\n    tag_243:\n        /* \"#utility.yul\":7514:7636   */\n    tag_242:\n        /* \"#utility.yul\":7679:7690   */\n      dup1\n        /* \"#utility.yul\":7671:7677   */\n      dup7\n        /* \"#utility.yul\":7667:7691   */\n      add\n        /* \"#utility.yul\":7717:7764   */\n      tag_244\n        /* \"#utility.yul\":7760:7763   */\n      dup10\n        /* \"#utility.yul\":7748:7758   */\n      dup3\n        /* \"#utility.yul\":7717:7764   */\n      tag_139\n      jump\t// in\n    tag_244:\n        /* \"#utility.yul\":7712:7715   */\n      dup6\n        /* \"#utility.yul\":7705:7765   */\n      mstore\n        /* \"#utility.yul\":7794:7798   */\n      0x20\n        /* \"#utility.yul\":7789:7792   */\n      dup6\n        /* \"#utility.yul\":7785:7799   */\n      add\n        /* \"#utility.yul\":7778:7799   */\n      swap5\n      pop\n        /* \"#utility.yul\":7450:7809   */\n      pop\n      pop\n        /* \"#utility.yul\":7434:7438   */\n      0x20\n        /* \"#utility.yul\":7429:7432   */\n      dup2\n        /* \"#utility.yul\":7425:7439   */\n      add\n        /* \"#utility.yul\":7418:7439   */\n      swap1\n      pop\n        /* \"#utility.yul\":7374:7809   */\n      jump(tag_239)\n    tag_241:\n        /* \"#utility.yul\":7378:7399   */\n      pop\n        /* \"#utility.yul\":6982:7815   */\n      pop\n      pop\n        /* \"#utility.yul\":6870:7815   */\n      swap4\n      swap3\n      pop\n      pop\n      pop\n      jump\t// out\n        /* \"#utility.yul\":7837:8227   */\n    tag_143:\n        /* \"#utility.yul\":7918:7923   */\n      0x00\n        /* \"#utility.yul\":7967:7970   */\n      dup3\n        /* \"#utility.yul\":7960:7964   */\n      0x1f\n        /* \"#utility.yul\":7952:7958   */\n      dup4\n        /* \"#utility.yul\":7948:7965   */\n      add\n        /* \"#utility.yul\":7944:7971   */\n      slt\n        /* \"#utility.yul\":7934:8056   */\n      tag_246\n      jumpi\n        /* \"#utility.yul\":7975:8054   */\n      tag_247\n      tag_131\n      jump\t// in\n    tag_247:\n        /* \"#utility.yul\":7934:8056   */\n    tag_246:\n        /* \"#utility.yul\":8092:8098   */\n      dup2\n        /* \"#utility.yul\":8079:8099   */\n      calldataload\n        /* \"#utility.yul\":8117:8221   */\n      tag_248\n        /* \"#utility.yul\":8217:8220   */\n      dup5\n        /* \"#utility.yul\":8209:8215   */\n      dup3\n        /* \"#utility.yul\":8202:8206   */\n      0x20\n        /* \"#utility.yul\":8194:8200   */\n      dup7\n        /* \"#utility.yul\":8190:8207   */\n      add\n        /* \"#utility.yul\":8117:8221   */\n      tag_142\n      jump\t// in\n    tag_248:\n        /* \"#utility.yul\":8108:8221   */\n      swap2\n      pop\n        /* \"#utility.yul\":7924:8227   */\n      pop\n        /* \"#utility.yul\":7837:8227   */\n      swap3\n      swap2\n      pop\n      pop\n      jump\t// out\n        /* \"#utility.yul\":8233:9408   */\n    tag_41:\n        /* \"#utility.yul\":8364:8370   */\n      0x00\n        /* \"#utility.yul\":8372:8378   */\n      dup1\n        /* \"#utility.yul\":8380:8386   */\n      0x00\n        /* \"#utility.yul\":8388:8394   */\n      dup1\n        /* \"#utility.yul\":8437:8440   */\n      0x80\n        /* \"#utility.yul\":8425:8434   */\n      dup6\n        /* \"#utility.yul\":8416:8423   */\n      dup8\n        /* \"#utility.yul\":8412:8435   */\n      sub\n        /* \"#utility.yul\":8408:8441   */\n      slt\n        /* \"#utility.yul\":8405:8525   */\n      iszero\n      tag_250\n      jumpi\n        /* \"#utility.yul\":8444:8523   */\n      tag_251\n      tag_120\n      jump\t// in\n    tag_251:\n        /* \"#utility.yul\":8405:8525   */\n    tag_250:\n        /* \"#utility.yul\":8564:8565   */\n      0x00\n        /* \"#utility.yul\":8589:8642   */\n      tag_252\n        /* \"#utility.yul\":8634:8641   */\n      dup8\n        /* \"#utility.yul\":8625:8631   */\n      dup3\n        /* \"#utility.yul\":8614:8623   */\n      dup9\n        /* \"#utility.yul\":8610:8632   */\n      add\n        /* \"#utility.yul\":8589:8642   */\n      tag_124\n      jump\t// in\n    tag_252:\n        /* \"#utility.yul\":8579:8642   */\n      swap5\n      pop\n        /* \"#utility.yul\":8535:8652   */\n      pop\n        /* \"#utility.yul\":8719:8721   */\n      0x20\n        /* \"#utility.yul\":8708:8717   */\n      dup6\n        /* \"#utility.yul\":8704:8722   */\n      add\n        /* \"#utility.yul\":8691:8723   */\n      calldataload\n        /* \"#utility.yul\":8750:8768   */\n      0xffffffffffffffff\n        /* \"#utility.yul\":8742:8748   */\n      dup2\n        /* \"#utility.yul\":8739:8769   */\n      gt\n        /* \"#utility.yul\":8736:8853   */\n      iszero\n      tag_253\n      jumpi\n        /* \"#utility.yul\":8772:8851   */\n      tag_254\n      tag_121\n      jump\t// in\n    tag_254:\n        /* \"#utility.yul\":8736:8853   */\n    tag_253:\n        /* \"#utility.yul\":8877:8940   */\n      tag_255\n        /* \"#utility.yul\":8932:8939   */\n      dup8\n        /* \"#utility.yul\":8923:8929   */\n      dup3\n        /* \"#utility.yul\":8912:8921   */\n      dup9\n        /* \"#utility.yul\":8908:8930   */\n      add\n        /* \"#utility.yul\":8877:8940   */\n      tag_139\n      jump\t// in\n    tag_255:\n        /* \"#utility.yul\":8867:8940   */\n      swap4\n      pop\n        /* \"#utility.yul\":8662:8950   */\n      pop\n        /* \"#utility.yul\":8989:8991   */\n      0x40\n        /* \"#utility.yul\":9015:9068   */\n      tag_256\n        /* \"#utility.yul\":9060:9067   */\n      dup8\n        /* \"#utility.yul\":9051:9057   */\n      dup3\n        /* \"#utility.yul\":9040:9049   */\n      dup9\n        /* \"#utility.yul\":9036:9058   */\n      add\n        /* \"#utility.yul\":9015:9068   */\n      tag_124\n      jump\t// in\n    tag_256:\n        /* \"#utility.yul\":9005:9068   */\n      swap3\n      pop\n        /* \"#utility.yul\":8960:9078   */\n      pop\n        /* \"#utility.yul\":9145:9147   */\n      0x60\n        /* \"#utility.yul\":9134:9143   */\n      dup6\n        /* \"#utility.yul\":9130:9148   */\n      add\n        /* \"#utility.yul\":9117:9149   */\n      calldataload\n        /* \"#utility.yul\":9176:9194   */\n      0xffffffffffffffff\n        /* \"#utility.yul\":9168:9174   */\n      dup2\n        /* \"#utility.yul\":9165:9195   */\n      gt\n        /* \"#utility.yul\":9162:9279   */\n      iszero\n      tag_257\n      jumpi\n        /* \"#utility.yul\":9198:9277   */\n      tag_258\n      tag_121\n      jump\t// in\n    tag_258:\n        /* \"#utility.yul\":9162:9279   */\n    tag_257:\n        /* \"#utility.yul\":9303:9391   */\n      tag_259\n        /* \"#utility.yul\":9383:9390   */\n      dup8\n        /* \"#utility.yul\":9374:9380   */\n      dup3\n        /* \"#utility.yul\":9363:9372   */\n      dup9\n        /* \"#utility.yul\":9359:9381   */\n      add\n        /* \"#utility.yul\":9303:9391   */\n      tag_143\n      jump\t// in\n    tag_259:\n        /* \"#utility.yul\":9293:9391   */\n      swap2\n      pop\n        /* \"#utility.yul\":9088:9401   */\n      pop\n        /* \"#utility.yul\":8233:9408   */\n      swap3\n      swap6\n      swap2\n      swap5\n      pop\n      swap3\n      pop\n      jump\t// out\n        /* \"#utility.yul\":9414:9594   */\n    tag_144:\n        /* \"#utility.yul\":9462:9539   */\n      0x4e487b7100000000000000000000000000000000000000000000000000000000\n        /* \"#utility.yul\":9459:9460   */\n      0x00\n        /* \"#utility.yul\":9452:9540   */\n      mstore\n        /* \"#utility.yul\":9559:9563   */\n      0x22\n        /* \"#utility.yul\":9556:9557   */\n      0x04\n        /* \"#utility.yul\":9549:9564   */\n      mstore\n        /* \"#utility.yul\":9583:9587   */\n      0x24\n        /* \"#utility.yul\":9580:9581   */\n      0x00\n        /* \"#utility.yul\":9573:9588   */\n      revert\n        /* \"#utility.yul\":9600:9920   */\n    tag_46:\n        /* \"#utility.yul\":9644:9650   */\n      0x00\n        /* \"#utility.yul\":9681:9682   */\n      0x02\n        /* \"#utility.yul\":9675:9679   */\n      dup3\n        /* \"#utility.yul\":9671:9683   */\n      div\n        /* \"#utility.yul\":9661:9683   */\n      swap1\n      pop\n        /* \"#utility.yul\":9728:9729   */\n      0x01\n        /* \"#utility.yul\":9722:9726   */\n      dup3\n        /* \"#utility.yul\":9718:9730   */\n      and\n        /* \"#utility.yul\":9749:9767   */\n      dup1\n        /* \"#utility.yul\":9739:9820   */\n      tag_262\n      jumpi\n        /* \"#utility.yul\":9805:9809   */\n      0x7f\n        /* \"#utility.yul\":9797:9803   */\n      dup3\n        /* \"#utility.yul\":9793:9810   */\n      and\n        /* \"#utility.yul\":9783:9810   */\n      swap2\n      pop\n        /* \"#utility.yul\":9739:9820   */\n    tag_262:\n        /* \"#utility.yul\":9867:9869   */\n      0x20\n        /* \"#utility.yul\":9859:9865   */\n      dup3\n        /* \"#utility.yul\":9856:9870   */\n      lt\n        /* \"#utility.yul\":9836:9854   */\n      dup2\n        /* \"#utility.yul\":9833:9871   */\n      sub\n        /* \"#utility.yul\":9830:9914   */\n      tag_263\n      jumpi\n        /* \"#utility.yul\":9886:9904   */\n      tag_264\n      tag_144\n      jump\t// in\n    tag_264:\n        /* \"#utility.yul\":9830:9914   */\n    tag_263:\n        /* \"#utility.yul\":9651:9920   */\n      pop\n        /* \"#utility.yul\":9600:9920   */\n      swap2\n      swap1\n      pop\n      jump\t// out\n        /* \"#utility.yul\":9926:10067   */\n    tag_145:\n        /* \"#utility.yul\":9975:9979   */\n      0x00\n        /* \"#utility.yul\":9998:10001   */\n      dup2\n        /* \"#utility.yul\":9990:10001   */\n      swap1\n      pop\n        /* \"#utility.yul\":10021:10024   */\n      dup2\n        /* \"#utility.yul\":10018:10019   */\n      0x00\n        /* \"#utility.yul\":10011:10025   */\n      mstore\n        /* \"#utility.yul\":10055:10059   */\n      0x20\n        /* \"#utility.yul\":10052:10053   */\n      0x00\n        /* \"#utility.yul\":10042:10060   */\n      keccak256\n        /* \"#utility.yul\":10034:10060   */\n      swap1\n      pop\n        /* \"#utility.yul\":9926:10067   */\n      swap2\n      swap1\n      pop\n      jump\t// out\n        /* \"#utility.yul\":10073:10166   */\n    tag_146:\n        /* \"#utility.yul\":10110:10116   */\n      0x00\n        /* \"#utility.yul\":10157:10159   */\n      0x20\n        /* \"#utility.yul\":10152:10154   */\n      0x1f\n        /* \"#utility.yul\":10145:10150   */\n      dup4\n        /* \"#utility.yul\":10141:10155   */\n      add\n        /* \"#utility.yul\":10137:10160   */\n      div\n        /* \"#utility.yul\":10127:10160   */\n      swap1\n      pop\n        /* \"#utility.yul\":10073:10166   */\n      swap2\n      swap1\n      pop\n      jump\t// out\n        /* \"#utility.yul\":10172:10279   */\n    tag_147:\n        /* \"#utility.yul\":10216:10224   */\n      0x00\n        /* \"#utility.yul\":10266:10271   */\n      dup3\n        /* \"#utility.yul\":10260:10264   */\n      dup3\n        /* \"#utility.yul\":10256:10272   */\n      shl\n        /* \"#utility.yul\":10235:10272   */\n      swap1\n      pop\n        /* \"#utility.yul\":10172:10279   */\n      swap3\n      swap2\n      pop\n      pop\n      jump\t// out\n        /* \"#utility.yul\":10285:10678   */\n    tag_148:\n        /* \"#utility.yul\":10354:10360   */\n      0x00\n        /* \"#utility.yul\":10404:10405   */\n      0x08\n        /* \"#utility.yul\":10392:10402   */\n      dup4\n        /* \"#utility.yul\":10388:10406   */\n      mul\n        /* \"#utility.yul\":10427:10524   */\n      tag_269\n        /* \"#utility.yul\":10457:10523   */\n      0xffffffffffffffffffffffffffffffffffffffffffffffffffffffffffffffff\n        /* \"#utility.yul\":10446:10455   */\n      dup3\n        /* \"#utility.yul\":10427:10524   */\n      tag_147\n      jump\t// in\n    tag_269:\n        /* \"#utility.yul\":10545:10584   */\n      tag_270\n        /* \"#utility.yul\":10575:10583   */\n      dup7\n        /* \"#utility.yul\":10564:10573   */\n      dup4\n        /* \"#utility.yul\":10545:10584   */\n      tag_147\n      jump\t// in\n    tag_270:\n        /* \"#utility.yul\":10533:10584   */\n      swap6\n      pop\n        /* \"#utility.yul\":10617:10621   */\n      dup1\n        /* \"#utility.yul\":10613:10622   */\n      not\n        /* \"#utility.yul\":10606:10611   */\n      dup5\n        /* \"#utility.yul\":10602:10623   */\n      and\n        /* \"#utility.yul\":10593:10623   */\n      swap4\n      pop\n        /* \"#utility.yul\":10666:10670   */\n      dup1\n        /* \"#utility.yul\":10656:10664   */\n      dup7\n        /* \"#utility.yul\":10652:10671   */\n      and\n        /* \"#utility.yul\":10645:10650   */\n      dup5\n        /* \"#utility.yul\":10642:10672   */\n      or\n        /* \"#utility.yul\":10632:10672   */\n      swap3\n      pop\n        /* \"#utility.yul\":10361:10678   */\n      pop\n      pop\n        /* \"#utility.yul\":10285:10678   */\n      swap4\n      swap3\n      pop\n      pop\n      pop\n      jump\t// out\n        /* \"#utility.yul\":10684:10744   */\n    tag_149:\n        /* \"#utility.yul\":10712:10715   */\n      0x00\n        /* \"#utility.yul\":10733:10738   */\n      dup2\n        /* \"#utility.yul\":10726:10738   */\n      swap1\n      pop\n        /* \"#utility.yul\":10684:10744   */\n      swap2\n      swap1\n      pop\n      jump\t// out\n        /* \"#utility.yul\":10750:10892   */\n    tag_150:\n        /* \"#utility.yul\":10800:10809   */\n      0x00\n        /* \"#utility.yul\":10833:10886   */\n      tag_273\n        /* \"#utility.yul\":10851:10885   */\n      tag_274\n        /* \"#utility.yul\":10860:10884   */\n      tag_275\n        /* \"#utility.yul\":10878:10883   */\n      dup5\n        /* \"#utility.yul\":10860:10884   */\n      tag_122\n      jump\t// in\n    tag_275:\n        /* \"#utility.yul\":10851:10885   */\n      tag_149\n      jump\t// in\n    tag_274:\n        /* \"#utility.yul\":10833:10886   */\n      tag_122\n      jump\t// in\n    tag_273:\n        /* \"#utility.yul\":10820:10886   */\n      swap1\n      pop\n        /* \"#utility.yul\":10750:10892   */\n      swap2\n      swap1\n      pop\n      jump\t// out\n        /* \"#utility.yul\":10898:10973   */\n    tag_151:\n        /* \"#utility.yul\":10941:10944   */\n      0x00\n        /* \"#utility.yul\":10962:10967   */\n      dup2\n        /* \"#utility.yul\":10955:10967   */\n      swap1\n      pop\n        /* \"#utility.yul\":10898:10973   */\n      swap2\n      swap1\n      pop\n      jump\t// out\n        /* \"#utility.yul\":10979:11248   */\n    tag_152:\n        /* \"#utility.yul\":11089:11128   */\n      tag_278\n        /* \"#utility.yul\":11120:11127   */\n      dup4\n        /* \"#utility.yul\":11089:11128   */\n      tag_150\n      jump\t// in\n    tag_278:\n        /* \"#utility.yul\":11150:11241   */\n      tag_279\n        /* \"#utility.yul\":11199:11240   */\n      tag_280\n        /* \"#utility.yul\":11223:11239   */\n      dup3\n        /* \"#utility.yul\":11199:11240   */\n      tag_151\n      jump\t// in\n    tag_280:\n        /* \"#utility.yul\":11191:11197   */\n      dup5\n        /* \"#utility.yul\":11184:11188   */\n      dup5\n        /* \"#utility.yul\":11178:11189   */\n      sload\n        /* \"#utility.yul\":11150:11241   */\n      tag_148\n      jump\t// in\n    tag_279:\n        /* \"#utility.yul\":11144:11148   */\n      dup3\n        /* \"#utility.yul\":11137:11242   */\n      sstore\n        /* \"#utility.yul\":11055:11248   */\n      pop\n        /* \"#utility.yul\":10979:11248   */\n      pop\n      pop\n      pop\n      jump\t// out\n        /* \"#utility.yul\":11254:11327   */\n    tag_153:\n        /* \"#utility.yul\":11299:11302   */\n      0x00\n        /* \"#utility.yul\":11254:11327   */\n      swap1\n      jump\t// out\n        /* \"#utility.yul\":11333:11522   */\n    tag_154:\n        /* \"#utility.yul\":11410:11442   */\n      tag_283\n      tag_153\n      jump\t// in\n    tag_283:\n        /* \"#utility.yul\":11451:11516   */\n      tag_284\n        /* \"#utility.yul\":11509:11515   */\n      dup2\n        /* \"#utility.yul\":11501:11507   */\n      dup5\n        /* \"#utility.yul\":11495:11499   */\n      dup5\n        /* \"#utility.yul\":11451:11516   */\n      tag_152\n      jump\t// in\n    tag_284:\n        /* \"#utility.yul\":11386:11522   */\n      pop\n        /* \"#utility.yul\":11333:11522   */\n      pop\n      pop\n      jump\t// out\n        /* \"#utility.yul\":11528:11714   */\n    tag_155:\n        /* \"#utility.yul\":11588:11708   */\n    tag_286:\n        /* \"#utility.yul\":11605:11608   */\n      dup2\n        /* \"#utility.yul\":11598:11603   */\n      dup2\n        /* \"#utility.yul\":11595:11609   */\n      lt\n        /* \"#utility.yul\":11588:11708   */\n      iszero\n      tag_288\n      jumpi\n        /* \"#utility.yul\":11659:11698   */\n      tag_289\n        /* \"#utility.yul\":11696:11697   */\n      0x00\n        /* \"#utility.yul\":11689:11694   */\n      dup3\n        /* \"#utility.yul\":11659:11698   */\n      tag_154\n      jump\t// in\n    tag_289:\n        /* \"#utility.yul\":11632:11633   */\n      0x01\n        /* \"#utility.yul\":11625:11630   */\n      dup2\n        /* \"#utility.yul\":11621:11634   */\n      add\n        /* \"#utility.yul\":11612:11634   */\n      swap1\n      pop\n        /* \"#utility.yul\":11588:11708   */\n      jump(tag_286)\n    tag_288:\n        /* \"#utility.yul\":11528:11714   */\n      pop\n      pop\n      jump\t// out\n        /* \"#utility.yul\":11720:12263   */\n    tag_156:\n        /* \"#utility.yul\":11821:11823   */\n      0x1f\n        /* \"#utility.yul\":11816:11819   */\n      dup3\n        /* \"#utility.yul\":11813:11824   */\n      gt\n        /* \"#utility.yul\":11810:12256   */\n      iszero\n      tag_291\n      jumpi\n        /* \"#utility.yul\":11855:11893   */\n      tag_292\n        /* \"#utility.yul\":11887:11892   */\n      dup2\n        /* \"#utility.yul\":11855:11893   */\n      tag_145\n      jump\t// in\n    tag_292:\n        /* \"#utility.yul\":11939:11968   */\n      tag_293\n        /* \"#utility.yul\":11957:11967   */\n      dup5\n        /* \"#utility.yul\":11939:11968   */\n      tag_146\n      jump\t// in\n    tag_293:\n        /* \"#utility.yul\":11929:11937   */\n      dup2\n        /* \"#utility.yul\":11925:11969   */\n      add\n        /* \"#utility.yul\":12122:12124   */\n      0x20\n        /* \"#utility.yul\":12110:12120   */\n      dup6\n        /* \"#utility.yul\":12107:12125   */\n      lt\n        /* \"#utility.yul\":12104:12153   */\n      iszero\n      tag_294\n      jumpi\n        /* \"#utility.yul\":12143:12151   */\n      dup2\n        /* \"#utility.yul\":12128:12151   */\n      swap1\n      pop\n        /* \"#utility.yul\":12104:12153   */\n    tag_294:\n        /* \"#utility.yul\":12166:12246   */\n      tag_295\n        /* \"#utility.yul\":12222:12244   */\n      tag_296\n        /* \"#utility.yul\":12240:12243   */\n      dup6\n        /* \"#utility.yul\":12222:12244   */\n      tag_146\n      jump\t// in\n    tag_296:\n        /* \"#utility.yul\":12212:12220   */\n      dup4\n        /* \"#utility.yul\":12208:12245   */\n      add\n        /* \"#utility.yul\":12195:12206   */\n      dup3\n        /* \"#utility.yul\":12166:12246   */\n      tag_155\n      jump\t// in\n    tag_295:\n        /* \"#utility.yul\":11825:12256   */\n      pop\n      pop\n        /* \"#utility.yul\":11810:12256   */\n    tag_291:\n        /* \"#utility.yul\":11720:12263   */\n      pop\n      pop\n      pop\n      jump\t// out\n        /* \"#utility.yul\":12269:12386   */\n    tag_157:\n        /* \"#utility.yul\":12323:12331   */\n      0x00\n        /* \"#utility.yul\":12373:12378   */\n      dup3\n        /* \"#utility.yul\":12367:12371   */\n      dup3\n        /* \"#utility.yul\":12363:12379   */\n      shr\n        /* \"#utility.yul\":12342:12379   */\n      swap1\n      pop\n        /* \"#utility.yul\":12269:12386   */\n      swap3\n      swap2\n      pop\n      pop\n      jump\t// out\n        /* \"#utility.yul\":12392:12561   */\n    tag_158:\n        /* \"#utility.yul\":12436:12442   */\n      0x00\n        /* \"#utility.yul\":12469:12520   */\n      tag_299\n        /* \"#utility.yul\":12517:12518   */\n      0x00\n        /* \"#utility.yul\":12513:12519   */\n      not\n        /* \"#utility.yul\":12505:12510   */\n      dup5\n        /* \"#utility.yul\":12502:12503   */\n      0x08\n        /* \"#utility.yul\":12498:12511   */\n      mul\n        /* \"#utility.yul\":12469:12520   */\n      tag_157\n      jump\t// in\n    tag_299:\n        /* \"#utility.yul\":12465:12521   */\n      not\n        /* \"#utility.yul\":12550:12554   */\n      dup1\n        /* \"#utility.yul\":12544:12548   */\n      dup4\n        /* \"#utility.yul\":12540:12555   */\n      and\n        /* \"#utility.yul\":12530:12555   */\n      swap2\n      pop\n        /* \"#utility.yul\":12443:12561   */\n      pop\n        /* \"#utility.yul\":12392:12561   */\n      swap3\n      swap2\n      pop\n      pop\n      jump\t// out\n        /* \"#utility.yul\":12566:12861   */\n    tag_159:\n        /* \"#utility.yul\":12642:12646   */\n      0x00\n        /* \"#utility.yul\":12788:12817   */\n      tag_301\n        /* \"#utility.yul\":12813:12816   */\n      dup4\n        /* \"#utility.yul\":12807:12811   */\n      dup4\n        /* \"#utility.yul\":12788:12817   */\n      tag_158\n      jump\t// in\n    tag_301:\n        /* \"#utility.yul\":12780:12817   */\n      swap2\n      pop\n        /* \"#utility.yul\":12850:12853   */\n      dup3\n        /* \"#utility.yul\":12847:12848   */\n      0x02\n        /* \"#utility.yul\":12843:12854   */\n      mul\n        /* \"#utility.yul\":12837:12841   */\n      dup3\n        /* \"#utility.yul\":12834:12855   */\n      or\n        /* \"#utility.yul\":12826:12855   */\n      swap1\n      pop\n        /* \"#utility.yul\":12566:12861   */\n      swap3\n      swap2\n      pop\n      pop\n      jump\t// out\n        /* \"#utility.yul\":12866:14261   */\n    tag_60:\n        /* \"#utility.yul\":12983:13020   */\n      tag_303\n        /* \"#utility.yul\":13016:13019   */\n      dup3\n        /* \"#utility.yul\":12983:13020   */\n      tag_126\n      jump\t// in\n    tag_303:\n        /* \"#utility.yul\":13085:13103   */\n      0xffffffffffffffff\n        /* \"#utility.yul\":13077:13083   */\n      dup2\n        /* \"#utility.yul\":13074:13104   */\n      gt\n        /* \"#utility.yul\":13071:13127   */\n      iszero\n      tag_304\n      jumpi\n        /* \"#utility.yul\":13107:13125   */\n      tag_305\n      tag_133\n      jump\t// in\n    tag_305:\n        /* \"#utility.yul\":13071:13127   */\n    tag_304:\n        /* \"#utility.yul\":13151:13189   */\n      tag_306\n        /* \"#utility.yul\":13183:13187   */\n      dup3\n        /* \"#utility.yul\":13177:13188   */\n      sload\n        /* \"#utility.yul\":13151:13189   */\n      tag_46\n      jump\t// in\n    tag_306:\n        /* \"#utility.yul\":13236:13303   */\n      tag_307\n        /* \"#utility.yul\":13296:13302   */\n      dup3\n        /* \"#utility.yul\":13288:13294   */\n      dup3\n        /* \"#utility.yul\":13282:13286   */\n      dup6\n        /* \"#utility.yul\":13236:13303   */\n      tag_156\n      jump\t// in\n    tag_307:\n        /* \"#utility.yul\":13330:13331   */\n      0x00\n        /* \"#utility.yul\":13354:13358   */\n      0x20\n        /* \"#utility.yul\":13341:13358   */\n      swap1\n      pop\n        /* \"#utility.yul\":13386:13388   */\n      0x1f\n        /* \"#utility.yul\":13378:13384   */\n      dup4\n        /* \"#utility.yul\":13375:13389   */\n      gt\n        /* \"#utility.yul\":13403:13404   */\n      0x01\n        /* \"#utility.yul\":13398:14016   */\n      dup2\n      eq\n      tag_309\n      jumpi\n        /* \"#utility.yul\":14060:14061   */\n      0x00\n        /* \"#utility.yul\":14077:14083   */\n      dup5\n        /* \"#utility.yul\":14074:14151   */\n      iszero\n      tag_310\n      jumpi\n        /* \"#utility.yul\":14126:14135   */\n      dup3\n        /* \"#utility.yul\":14121:14124   */\n      dup8\n        /* \"#utility.yul\":14117:14136   */\n      add\n        /* \"#utility.yul\":14111:14137   */\n      mload\n        /* \"#utility.yul\":14102:14137   */\n      swap1\n      pop\n        /* \"#utility.yul\":14074:14151   */\n    tag_310:\n        /* \"#utility.yul\":14177:14244   */\n      tag_311\n        /* \"#utility.yul\":14237:14243   */\n      dup6\n        /* \"#utility.yul\":14230:14235   */\n      dup3\n        /* \"#utility.yul\":14177:14244   */\n      tag_159\n      jump\t// in\n    tag_311:\n        /* \"#utility.yul\":14171:14175   */\n      dup7\n        /* \"#utility.yul\":14164:14245   */\n      sstore\n        /* \"#utility.yul\":14033:14255   */\n      pop\n        /* \"#utility.yul\":13368:14255   */\n      jump(tag_308)\n        /* \"#utility.yul\":13398:14016   */\n    tag_309:\n        /* \"#utility.yul\":13450:13454   */\n      0x1f\n        /* \"#utility.yul\":13446:13455   */\n      not\n        /* \"#utility.yul\":13438:13444   */\n      dup5\n        /* \"#utility.yul\":13434:13456   */\n      and\n        /* \"#utility.yul\":13484:13521   */\n      tag_312\n        /* \"#utility.yul\":13516:13520   */\n      dup7\n        /* \"#utility.yul\":13484:13521   */\n      tag_145\n      jump\t// in\n    tag_312:\n        /* \"#utility.yul\":13543:13544   */\n      0x00\n        /* \"#utility.yul\":13557:13765   */\n    tag_313:\n        /* \"#utility.yul\":13571:13578   */\n      dup3\n        /* \"#utility.yul\":13568:13569   */\n      dup2\n        /* \"#utility.yul\":13565:13579   */\n      lt\n        /* \"#utility.yul\":13557:13765   */\n      iszero\n      tag_315\n      jumpi\n        /* \"#utility.yul\":13650:13659   */\n      dup5\n        /* \"#utility.yul\":13645:13648   */\n      dup10\n        /* \"#utility.yul\":13641:13660   */\n      add\n        /* \"#utility.yul\":13635:13661   */\n      mload\n        /* \"#utility.yul\":13627:13633   */\n      dup3\n        /* \"#utility.yul\":13620:13662   */\n      sstore\n        /* \"#utility.yul\":13701:13702   */\n      0x01\n        /* \"#utility.yul\":13693:13699   */\n      dup3\n        /* \"#utility.yul\":13689:13703   */\n      add\n        /* \"#utility.yul\":13679:13703   */\n      swap2\n      pop\n        /* \"#utility.yul\":13748:13750   */\n      0x20\n        /* \"#utility.yul\":13737:13746   */\n      dup6\n        /* \"#utility.yul\":13733:13751   */\n      add\n        /* \"#utility.yul\":13720:13751   */\n      swap5\n      pop\n        /* \"#utility.yul\":13594:13598   */\n      0x20\n        /* \"#utility.yul\":13591:13592   */\n      dup2\n        /* \"#utility.yul\":13587:13599   */\n      add\n        /* \"#utility.yul\":13582:13599   */\n      swap1\n      pop\n        /* \"#utility.yul\":13557:13765   */\n      jump(tag_313)\n    tag_315:\n        /* \"#utility.yul\":13793:13799   */\n      dup7\n        /* \"#utility.yul\":13784:13791   */\n      dup4\n        /* \"#utility.yul\":13781:13800   */\n      lt\n        /* \"#utility.yul\":13778:13957   */\n      iszero\n      tag_316\n      jumpi\n        /* \"#utility.yul\":13851:13860   */\n      dup5\n        /* \"#utility.yul\":13846:13849   */\n      dup10\n        /* \"#utility.yul\":13842:13861   */\n      add\n        /* \"#utility.yul\":13836:13862   */\n      mload\n        /* \"#utility.yul\":13894:13942   */\n      tag_317\n        /* \"#utility.yul\":13936:13940   */\n      0x1f\n        /* \"#utility.yul\":13928:13934   */\n      dup10\n        /* \"#utility.yul\":13924:13941   */\n      and\n        /* \"#utility.yul\":13913:13922   */\n      dup3\n        /* \"#utility.yul\":13894:13942   */\n      tag_158\n      jump\t// in\n    tag_317:\n        /* \"#utility.yul\":13886:13892   */\n      dup4\n        /* \"#utility.yul\":13879:13943   */\n      sstore\n        /* \"#utility.yul\":13801:13957   */\n      pop\n        /* \"#utility.yul\":13778:13957   */\n    tag_316:\n        /* \"#utility.yul\":14003:14004   */\n      0x01\n        /* \"#utility.yul\":13999:14000   */\n      0x02\n        /* \"#utility.yul\":13991:13997   */\n      dup9\n        /* \"#utility.yul\":13987:14001   */\n      mul\n        /* \"#utility.yul\":13983:14005   */\n      add\n        /* \"#utility.yul\":13977:13981   */\n      dup9\n        /* \"#utility.yul\":13970:14006   */\n      sstore\n        /* \"#utility.yul\":13405:14016   */\n      pop\n      pop\n      pop\n        /* \"#utility.yul\":13368:14255   */\n    tag_308:\n      pop\n        /* \"#utility.yul\":12958:14261   */\n      pop\n      pop\n      pop\n        /* \"#utility.yul\":12866:14261   */\n      pop\n      pop\n      jump\t// out\n        /* \"#utility.yul\":14267:14447   */\n    tag_66:\n        /* \"#utility.yul\":14315:14392   */\n      0x4e487b7100000000000000000000000000000000000000000000000000000000\n        /* \"#utility.yul\":14312:14313   */\n      0x00\n        /* \"#utility.yul\":14305:14393   */\n      mstore\n        /* \"#utility.yul\":14412:14416   */\n      0x32\n        /* \"#utility.yul\":14409:14410   */\n      0x04\n        /* \"#utility.yul\":14402:14417   */\n      mstore\n        /* \"#utility.yul\":14436:14440   */\n      0x24\n        /* \"#utility.yul\":14433:14434   */\n      0x00\n        /* \"#utility.yul\":14426:14441   */\n      revert\n\n    auxdata: 0xa2646970667358221220a143428884b94976ca96252f0d1b55811cb0fe4281f91b63f32d450dca1878b664736f6c634300081a0033\n}\n",
				"bytecode": {
					"linkReferences": {},
					"object": "6080604052348015600e575f80fd5b50610f038061001c5f395ff3fe608060405234801561000f575f80fd5b506004361061007b575f3560e01c806332698a091161005957806332698a09146101015780639ac438761461011d578063bf23fccc1461014d578063c34479831461017d5761007b565b806306ead22e1461007f5780631c9f7bb9146100b157806328bcb51a146100e3575b5f80fd5b61009960048036038101906100949190610776565b610199565b6040516100a893929190610820565b60405180910390f35b6100cb60048036038101906100c69190610776565b610253565b6040516100da93929190610820565b60405180910390f35b6100eb6102ff565b6040516100f8919061085c565b60405180910390f35b61011b600480360381019061011691906109a1565b61030a565b005b61013760048036038101906101329190610776565b6103ed565b60405161014491906109fb565b60405180910390f35b61016760048036038101906101629190610a1b565b61049f565b60405161017491906109fb565b60405180910390f35b61019760048036038101906101929190610b3b565b61056c565b005b5f81815481106101a7575f80fd5b905f5260205f2090600402015f91509050805f0154908060010180546101cc90610c04565b80601f01602080910402602001604051908101604052809291908181526020018280546101f890610c04565b80156102435780601f1061021a57610100808354040283529160200191610243565b820191905f5260205f20905b81548152906001019060200180831161022657829003601f168201915b5050505050908060020154905083565b6001602052805f5260405f205f91509050805f01549080600101805461027890610c04565b80601f01602080910402602001604051908101604052809291908181526020018280546102a490610c04565b80156102ef5780601f106102c6576101008083540402835291602001916102ef565b820191905f5260205f20905b8154815290600101906020018083116102d257829003601f168201915b5050505050908060020154905083565b5f8080549050905090565b60015f8381526020019081526020015f2060030181908060018154018082558091505060019003905f5260205f20015f90919091909150908161034d9190610dd1565b505f5b5f805490508110156103e857825f82815481106103705761036f610ea0565b5b905f5260205f2090600402015f0154036103db575f818154811061039757610396610ea0565b5b905f5260205f20906004020160030182908060018154018082558091505060019003905f5260205f20015f9091909190915090816103d59190610dd1565b506103e8565b8080600101915050610350565b505050565b60605f828154811061040257610401610ea0565b5b905f5260205f209060040201600101805461041c90610c04565b80601f016020809104026020016040519081016040528092919081815260200182805461044890610c04565b80156104935780601f1061046a57610100808354040283529160200191610493565b820191905f5260205f20905b81548152906001019060200180831161047657829003601f168201915b50505050509050919050565b60605f83815481106104b4576104b3610ea0565b5b905f5260205f20906004020160030182815481106104d5576104d4610ea0565b5b905f5260205f200180546104e890610c04565b80601f016020809104026020016040519081016040528092919081815260200182805461051490610c04565b801561055f5780601f106105365761010080835404028352916020019161055f565b820191905f5260205f20905b81548152906001019060200180831161054257829003601f168201915b5050505050905092915050565b5f60405180608001604052808681526020018581526020018481526020018381525090505f81908060018154018082558091505060019003905f5260205f2090600402015f909190919091505f820151815f015560208201518160010190816105d59190610dd1565b506040820151816002015560608201518160030190805190602001906105fc929190610660565b5050508060015f8781526020019081526020015f205f820151815f0155602082015181600101908161062e9190610dd1565b50604082015181600201556060820151816003019080519060200190610655929190610660565b509050505050505050565b828054828255905f5260205f209081019282156106a6579160200282015b828111156106a55782518290816106959190610dd1565b509160200191906001019061067e565b5b5090506106b391906106b7565b5090565b5b808211156106d6575f81816106cd91906106da565b506001016106b8565b5090565b5080546106e690610c04565b5f825580601f106106f75750610714565b601f0160209004905f5260205f20908101906107139190610717565b5b50565b5b8082111561072e575f815f905550600101610718565b5090565b5f604051905090565b5f80fd5b5f80fd5b5f819050919050565b61075581610743565b811461075f575f80fd5b50565b5f813590506107708161074c565b92915050565b5f6020828403121561078b5761078a61073b565b5b5f61079884828501610762565b91505092915050565b6107aa81610743565b82525050565b5f81519050919050565b5f82825260208201905092915050565b8281835e5f83830152505050565b5f601f19601f8301169050919050565b5f6107f2826107b0565b6107fc81856107ba565b935061080c8185602086016107ca565b610815816107d8565b840191505092915050565b5f6060820190506108335f8301866107a1565b818103602083015261084581856107e8565b905061085460408301846107a1565b949350505050565b5f60208201905061086f5f8301846107a1565b92915050565b5f80fd5b5f80fd5b7f4e487b71000000000000000000000000000000000000000000000000000000005f52604160045260245ffd5b6108b3826107d8565b810181811067ffffffffffffffff821117156108d2576108d161087d565b5b80604052505050565b5f6108e4610732565b90506108f082826108aa565b919050565b5f67ffffffffffffffff82111561090f5761090e61087d565b5b610918826107d8565b9050602081019050919050565b828183375f83830152505050565b5f610945610940846108f5565b6108db565b90508281526020810184848401111561096157610960610879565b5b61096c848285610925565b509392505050565b5f82601f83011261098857610987610875565b5b8135610998848260208601610933565b91505092915050565b5f80604083850312156109b7576109b661073b565b5b5f6109c485828601610762565b925050602083013567ffffffffffffffff8111156109e5576109e461073f565b5b6109f185828601610974565b9150509250929050565b5f6020820190508181035f830152610a1381846107e8565b905092915050565b5f8060408385031215610a3157610a3061073b565b5b5f610a3e85828601610762565b9250506020610a4f85828601610762565b9150509250929050565b5f67ffffffffffffffff821115610a7357610a7261087d565b5b602082029050602081019050919050565b5f80fd5b5f610a9a610a9584610a59565b6108db565b90508083825260208201905060208402830185811115610abd57610abc610a84565b5b835b81811015610b0457803567ffffffffffffffff811115610ae257610ae1610875565b5b808601610aef8982610974565b85526020850194505050602081019050610abf565b5050509392505050565b5f82601f830112610b2257610b21610875565b5b8135610b32848260208601610a88565b91505092915050565b5f805f8060808587031215610b5357610b5261073b565b5b5f610b6087828801610762565b945050602085013567ffffffffffffffff811115610b8157610b8061073f565b5b610b8d87828801610974565b9350506040610b9e87828801610762565b925050606085013567ffffffffffffffff811115610bbf57610bbe61073f565b5b610bcb87828801610b0e565b91505092959194509250565b7f4e487b71000000000000000000000000000000000000000000000000000000005f52602260045260245ffd5b5f6002820490506001821680610c1b57607f821691505b602082108103610c2e57610c2d610bd7565b5b50919050565b5f819050815f5260205f209050919050565b5f6020601f8301049050919050565b5f82821b905092915050565b5f60088302610c907fffffffffffffffffffffffffffffffffffffffffffffffffffffffffffffffff82610c55565b610c9a8683610c55565b95508019841693508086168417925050509392505050565b5f819050919050565b5f610cd5610cd0610ccb84610743565b610cb2565b610743565b9050919050565b5f819050919050565b610cee83610cbb565b610d02610cfa82610cdc565b848454610c61565b825550505050565b5f90565b610d16610d0a565b610d21818484610ce5565b505050565b5b81811015610d4457610d395f82610d0e565b600181019050610d27565b5050565b601f821115610d8957610d5a81610c34565b610d6384610c46565b81016020851015610d72578190505b610d86610d7e85610c46565b830182610d26565b50505b505050565b5f82821c905092915050565b5f610da95f1984600802610d8e565b1980831691505092915050565b5f610dc18383610d9a565b9150826002028217905092915050565b610dda826107b0565b67ffffffffffffffff811115610df357610df261087d565b5b610dfd8254610c04565b610e08828285610d48565b5f60209050601f831160018114610e39575f8415610e27578287015190505b610e318582610db6565b865550610e98565b601f198416610e4786610c34565b5f5b82811015610e6e57848901518255600182019150602085019450602081019050610e49565b86831015610e8b5784890151610e87601f891682610d9a565b8355505b6001600288020188555050505b505050505050565b7f4e487b71000000000000000000000000000000000000000000000000000000005f52603260045260245ffdfea2646970667358221220a143428884b94976ca96252f0d1b55811cb0fe4281f91b63f32d450dca1878b664736f6c634300081a0033",
					"opcodes": "PUSH1 0x80 PUSH1 0x40 MSTORE CALLVALUE DUP1 ISZERO PUSH1 0xE JUMPI PUSH0 DUP1 REVERT JUMPDEST POP PUSH2 0xF03 DUP1 PUSH2 0x1C PUSH0 CODECOPY PUSH0 RETURN INVALID PUSH1 0x80 PUSH1 0x40 MSTORE CALLVALUE DUP1 ISZERO PUSH2 0xF JUMPI PUSH0 DUP1 REVERT JUMPDEST POP PUSH1 0x4 CALLDATASIZE LT PUSH2 0x7B JUMPI PUSH0 CALLDATALOAD PUSH1 0xE0 SHR DUP1 PUSH4 0x32698A09 GT PUSH2 0x59 JUMPI DUP1 PUSH4 0x32698A09 EQ PUSH2 0x101 JUMPI DUP1 PUSH4 0x9AC43876 EQ PUSH2 0x11D JUMPI DUP1 PUSH4 0xBF23FCCC EQ PUSH2 0x14D JUMPI DUP1 PUSH4 0xC3447983 EQ PUSH2 0x17D JUMPI PUSH2 0x7B JUMP JUMPDEST DUP1 PUSH4 0x6EAD22E EQ PUSH2 0x7F JUMPI DUP1 PUSH4 0x1C9F7BB9 EQ PUSH2 0xB1 JUMPI DUP1 PUSH4 0x28BCB51A EQ PUSH2 0xE3 JUMPI JUMPDEST PUSH0 DUP1 REVERT JUMPDEST PUSH2 0x99 PUSH1 0x4 DUP1 CALLDATASIZE SUB DUP2 ADD SWAP1 PUSH2 0x94 SWAP2 SWAP1 PUSH2 0x776 JUMP JUMPDEST PUSH2 0x199 JUMP JUMPDEST PUSH1 0x40 MLOAD PUSH2 0xA8 SWAP4 SWAP3 SWAP2 SWAP1 PUSH2 0x820 JUMP JUMPDEST PUSH1 0x40 MLOAD DUP1 SWAP2 SUB SWAP1 RETURN JUMPDEST PUSH2 0xCB PUSH1 0x4 DUP1 CALLDATASIZE SUB DUP2 ADD SWAP1 PUSH2 0xC6 SWAP2 SWAP1 PUSH2 0x776 JUMP JUMPDEST PUSH2 0x253 JUMP JUMPDEST PUSH1 0x40 MLOAD PUSH2 0xDA SWAP4 SWAP3 SWAP2 SWAP1 PUSH2 0x820 JUMP JUMPDEST PUSH1 0x40 MLOAD DUP1 SWAP2 SUB SWAP1 RETURN JUMPDEST PUSH2 0xEB PUSH2 0x2FF JUMP JUMPDEST PUSH1 0x40 MLOAD PUSH2 0xF8 SWAP2 SWAP1 PUSH2 0x85C JUMP JUMPDEST PUSH1 0x40 MLOAD DUP1 SWAP2 SUB SWAP1 RETURN JUMPDEST PUSH2 0x11B PUSH1 0x4 DUP1 CALLDATASIZE SUB DUP2 ADD SWAP1 PUSH2 0x116 SWAP2 SWAP1 PUSH2 0x9A1 JUMP JUMPDEST PUSH2 0x30A JUMP JUMPDEST STOP JUMPDEST PUSH2 0x137 PUSH1 0x4 DUP1 CALLDATASIZE SUB DUP2 ADD SWAP1 PUSH2 0x132 SWAP2 SWAP1 PUSH2 0x776 JUMP JUMPDEST PUSH2 0x3ED JUMP JUMPDEST PUSH1 0x40 MLOAD PUSH2 0x144 SWAP2 SWAP1 PUSH2 0x9FB JUMP JUMPDEST PUSH1 0x40 MLOAD DUP1 SWAP2 SUB SWAP1 RETURN JUMPDEST PUSH2 0x167 PUSH1 0x4 DUP1 CALLDATASIZE SUB DUP2 ADD SWAP1 PUSH2 0x162 SWAP2 SWAP1 PUSH2 0xA1B JUMP JUMPDEST PUSH2 0x49F JUMP JUMPDEST PUSH1 0x40 MLOAD PUSH2 0x174 SWAP2 SWAP1 PUSH2 0x9FB JUMP JUMPDEST PUSH1 0x40 MLOAD DUP1 SWAP2 SUB SWAP1 RETURN JUMPDEST PUSH2 0x197 PUSH1 0x4 DUP1 CALLDATASIZE SUB DUP2 ADD SWAP1 PUSH2 0x192 SWAP2 SWAP1 PUSH2 0xB3B JUMP JUMPDEST PUSH2 0x56C JUMP JUMPDEST STOP JUMPDEST PUSH0 DUP2 DUP2 SLOAD DUP2 LT PUSH2 0x1A7 JUMPI PUSH0 DUP1 REVERT JUMPDEST SWAP1 PUSH0 MSTORE PUSH1 0x20 PUSH0 KECCAK256 SWAP1 PUSH1 0x4 MUL ADD PUSH0 SWAP2 POP SWAP1 POP DUP1 PUSH0 ADD SLOAD SWAP1 DUP1 PUSH1 0x1 ADD DUP1 SLOAD PUSH2 0x1CC SWAP1 PUSH2 0xC04 JUMP JUMPDEST DUP1 PUSH1 0x1F ADD PUSH1 0x20 DUP1 SWAP2 DIV MUL PUSH1 0x20 ADD PUSH1 0x40 MLOAD SWAP1 DUP2 ADD PUSH1 0x40 MSTORE DUP1 SWAP3 SWAP2 SWAP1 DUP2 DUP2 MSTORE PUSH1 0x20 ADD DUP3 DUP1 SLOAD PUSH2 0x1F8 SWAP1 PUSH2 0xC04 JUMP JUMPDEST DUP1 ISZERO PUSH2 0x243 JUMPI DUP1 PUSH1 0x1F LT PUSH2 0x21A JUMPI PUSH2 0x100 DUP1 DUP4 SLOAD DIV MUL DUP4 MSTORE SWAP2 PUSH1 0x20 ADD SWAP2 PUSH2 0x243 JUMP JUMPDEST DUP3 ADD SWAP2 SWAP1 PUSH0 MSTORE PUSH1 0x20 PUSH0 KECCAK256 SWAP1 JUMPDEST DUP2 SLOAD DUP2 MSTORE SWAP1 PUSH1 0x1 ADD SWAP1 PUSH1 0x20 ADD DUP1 DUP4 GT PUSH2 0x226 JUMPI DUP3 SWAP1 SUB PUSH1 0x1F AND DUP3 ADD SWAP2 JUMPDEST POP POP POP POP POP SWAP1 DUP1 PUSH1 0x2 ADD SLOAD SWAP1 POP DUP4 JUMP JUMPDEST PUSH1 0x1 PUSH1 0x20 MSTORE DUP1 PUSH0 MSTORE PUSH1 0x40 PUSH0 KECCAK256 PUSH0 SWAP2 POP SWAP1 POP DUP1 PUSH0 ADD SLOAD SWAP1 DUP1 PUSH1 0x1 ADD DUP1 SLOAD PUSH2 0x278 SWAP1 PUSH2 0xC04 JUMP JUMPDEST DUP1 PUSH1 0x1F ADD PUSH1 0x20 DUP1 SWAP2 DIV MUL PUSH1 0x20 ADD PUSH1 0x40 MLOAD SWAP1 DUP2 ADD PUSH1 0x40 MSTORE DUP1 SWAP3 SWAP2 SWAP1 DUP2 DUP2 MSTORE PUSH1 0x20 ADD DUP3 DUP1 SLOAD PUSH2 0x2A4 SWAP1 PUSH2 0xC04 JUMP JUMPDEST DUP1 ISZERO PUSH2 0x2EF JUMPI DUP1 PUSH1 0x1F LT PUSH2 0x2C6 JUMPI PUSH2 0x100 DUP1 DUP4 SLOAD DIV MUL DUP4 MSTORE SWAP2 PUSH1 0x20 ADD SWAP2 PUSH2 0x2EF JUMP JUMPDEST DUP3 ADD SWAP2 SWAP1 PUSH0 MSTORE PUSH1 0x20 PUSH0 KECCAK256 SWAP1 JUMPDEST DUP2 SLOAD DUP2 MSTORE SWAP1 PUSH1 0x1 ADD SWAP1 PUSH1 0x20 ADD DUP1 DUP4 GT PUSH2 0x2D2 JUMPI DUP3 SWAP1 SUB PUSH1 0x1F AND DUP3 ADD SWAP2 JUMPDEST POP POP POP POP POP SWAP1 DUP1 PUSH1 0x2 ADD SLOAD SWAP1 POP DUP4 JUMP JUMPDEST PUSH0 DUP1 DUP1 SLOAD SWAP1 POP SWAP1 POP SWAP1 JUMP JUMPDEST PUSH1 0x1 PUSH0 DUP4 DUP2 MSTORE PUSH1 0x20 ADD SWAP1 DUP2 MSTORE PUSH1 0x20 ADD PUSH0 KECCAK256 PUSH1 0x3 ADD DUP2 SWAP1 DUP1 PUSH1 0x1 DUP2 SLOAD ADD DUP1 DUP3 SSTORE DUP1 SWAP2 POP POP PUSH1 0x1 SWAP1 SUB SWAP1 PUSH0 MSTORE PUSH1 0x20 PUSH0 KECCAK256 ADD PUSH0 SWAP1 SWAP2 SWAP1 SWAP2 SWAP1 SWAP2 POP SWAP1 DUP2 PUSH2 0x34D SWAP2 SWAP1 PUSH2 0xDD1 JUMP JUMPDEST POP PUSH0 JUMPDEST PUSH0 DUP1 SLOAD SWAP1 POP DUP2 LT ISZERO PUSH2 0x3E8 JUMPI DUP3 PUSH0 DUP3 DUP2 SLOAD DUP2 LT PUSH2 0x370 JUMPI PUSH2 0x36F PUSH2 0xEA0 JUMP JUMPDEST JUMPDEST SWAP1 PUSH0 MSTORE PUSH1 0x20 PUSH0 KECCAK256 SWAP1 PUSH1 0x4 MUL ADD PUSH0 ADD SLOAD SUB PUSH2 0x3DB JUMPI PUSH0 DUP2 DUP2 SLOAD DUP2 LT PUSH2 0x397 JUMPI PUSH2 0x396 PUSH2 0xEA0 JUMP JUMPDEST JUMPDEST SWAP1 PUSH0 MSTORE PUSH1 0x20 PUSH0 KECCAK256 SWAP1 PUSH1 0x4 MUL ADD PUSH1 0x3 ADD DUP3 SWAP1 DUP1 PUSH1 0x1 DUP2 SLOAD ADD DUP1 DUP3 SSTORE DUP1 SWAP2 POP POP PUSH1 0x1 SWAP1 SUB SWAP1 PUSH0 MSTORE PUSH1 0x20 PUSH0 KECCAK256 ADD PUSH0 SWAP1 SWAP2 SWAP1 SWAP2 SWAP1 SWAP2 POP SWAP1 DUP2 PUSH2 0x3D5 SWAP2 SWAP1 PUSH2 0xDD1 JUMP JUMPDEST POP PUSH2 0x3E8 JUMP JUMPDEST DUP1 DUP1 PUSH1 0x1 ADD SWAP2 POP POP PUSH2 0x350 JUMP JUMPDEST POP POP POP JUMP JUMPDEST PUSH1 0x60 PUSH0 DUP3 DUP2 SLOAD DUP2 LT PUSH2 0x402 JUMPI PUSH2 0x401 PUSH2 0xEA0 JUMP JUMPDEST JUMPDEST SWAP1 PUSH0 MSTORE PUSH1 0x20 PUSH0 KECCAK256 SWAP1 PUSH1 0x4 MUL ADD PUSH1 0x1 ADD DUP1 SLOAD PUSH2 0x41C SWAP1 PUSH2 0xC04 JUMP JUMPDEST DUP1 PUSH1 0x1F ADD PUSH1 0x20 DUP1 SWAP2 DIV MUL PUSH1 0x20 ADD PUSH1 0x40 MLOAD SWAP1 DUP2 ADD PUSH1 0x40 MSTORE DUP1 SWAP3 SWAP2 SWAP1 DUP2 DUP2 MSTORE PUSH1 0x20 ADD DUP3 DUP1 SLOAD PUSH2 0x448 SWAP1 PUSH2 0xC04 JUMP JUMPDEST DUP1 ISZERO PUSH2 0x493 JUMPI DUP1 PUSH1 0x1F LT PUSH2 0x46A JUMPI PUSH2 0x100 DUP1 DUP4 SLOAD DIV MUL DUP4 MSTORE SWAP2 PUSH1 0x20 ADD SWAP2 PUSH2 0x493 JUMP JUMPDEST DUP3 ADD SWAP2 SWAP1 PUSH0 MSTORE PUSH1 0x20 PUSH0 KECCAK256 SWAP1 JUMPDEST DUP2 SLOAD DUP2 MSTORE SWAP1 PUSH1 0x1 ADD SWAP1 PUSH1 0x20 ADD DUP1 DUP4 GT PUSH2 0x476 JUMPI DUP3 SWAP1 SUB PUSH1 0x1F AND DUP3 ADD SWAP2 JUMPDEST POP POP POP POP POP SWAP1 POP SWAP2 SWAP1 POP JUMP JUMPDEST PUSH1 0x60 PUSH0 DUP4 DUP2 SLOAD DUP2 LT PUSH2 0x4B4 JUMPI PUSH2 0x4B3 PUSH2 0xEA0 JUMP JUMPDEST JUMPDEST SWAP1 PUSH0 MSTORE PUSH1 0x20 PUSH0 KECCAK256 SWAP1 PUSH1 0x4 MUL ADD PUSH1 0x3 ADD DUP3 DUP2 SLOAD DUP2 LT PUSH2 0x4D5 JUMPI PUSH2 0x4D4 PUSH2 0xEA0 JUMP JUMPDEST JUMPDEST SWAP1 PUSH0 MSTORE PUSH1 0x20 PUSH0 KECCAK256 ADD DUP1 SLOAD PUSH2 0x4E8 SWAP1 PUSH2 0xC04 JUMP JUMPDEST DUP1 PUSH1 0x1F ADD PUSH1 0x20 DUP1 SWAP2 DIV MUL PUSH1 0x20 ADD PUSH1 0x40 MLOAD SWAP1 DUP2 ADD PUSH1 0x40 MSTORE DUP1 SWAP3 SWAP2 SWAP1 DUP2 DUP2 MSTORE PUSH1 0x20 ADD DUP3 DUP1 SLOAD PUSH2 0x514 SWAP1 PUSH2 0xC04 JUMP JUMPDEST DUP1 ISZERO PUSH2 0x55F JUMPI DUP1 PUSH1 0x1F LT PUSH2 0x536 JUMPI PUSH2 0x100 DUP1 DUP4 SLOAD DIV MUL DUP4 MSTORE SWAP2 PUSH1 0x20 ADD SWAP2 PUSH2 0x55F JUMP JUMPDEST DUP3 ADD SWAP2 SWAP1 PUSH0 MSTORE PUSH1 0x20 PUSH0 KECCAK256 SWAP1 JUMPDEST DUP2 SLOAD DUP2 MSTORE SWAP1 PUSH1 0x1 ADD SWAP1 PUSH1 0x20 ADD DUP1 DUP4 GT PUSH2 0x542 JUMPI DUP3 SWAP1 SUB PUSH1 0x1F AND DUP3 ADD SWAP2 JUMPDEST POP POP POP POP POP SWAP1 POP SWAP3 SWAP2 POP POP JUMP JUMPDEST PUSH0 PUSH1 0x40 MLOAD DUP1 PUSH1 0x80 ADD PUSH1 0x40 MSTORE DUP1 DUP7 DUP2 MSTORE PUSH1 0x20 ADD DUP6 DUP2 MSTORE PUSH1 0x20 ADD DUP5 DUP2 MSTORE PUSH1 0x20 ADD DUP4 DUP2 MSTORE POP SWAP1 POP PUSH0 DUP2 SWAP1 DUP1 PUSH1 0x1 DUP2 SLOAD ADD DUP1 DUP3 SSTORE DUP1 SWAP2 POP POP PUSH1 0x1 SWAP1 SUB SWAP1 PUSH0 MSTORE PUSH1 0x20 PUSH0 KECCAK256 SWAP1 PUSH1 0x4 MUL ADD PUSH0 SWAP1 SWAP2 SWAP1 SWAP2 SWAP1 SWAP2 POP PUSH0 DUP3 ADD MLOAD DUP2 PUSH0 ADD SSTORE PUSH1 0x20 DUP3 ADD MLOAD DUP2 PUSH1 0x1 ADD SWAP1 DUP2 PUSH2 0x5D5 SWAP2 SWAP1 PUSH2 0xDD1 JUMP JUMPDEST POP PUSH1 0x40 DUP3 ADD MLOAD DUP2 PUSH1 0x2 ADD SSTORE PUSH1 0x60 DUP3 ADD MLOAD DUP2 PUSH1 0x3 ADD SWAP1 DUP1 MLOAD SWAP1 PUSH1 0x20 ADD SWAP1 PUSH2 0x5FC SWAP3 SWAP2 SWAP1 PUSH2 0x660 JUMP JUMPDEST POP POP POP DUP1 PUSH1 0x1 PUSH0 DUP8 DUP2 MSTORE PUSH1 0x20 ADD SWAP1 DUP2 MSTORE PUSH1 0x20 ADD PUSH0 KECCAK256 PUSH0 DUP3 ADD MLOAD DUP2 PUSH0 ADD SSTORE PUSH1 0x20 DUP3 ADD MLOAD DUP2 PUSH1 0x1 ADD SWAP1 DUP2 PUSH2 0x62E SWAP2 SWAP1 PUSH2 0xDD1 JUMP JUMPDEST POP PUSH1 0x40 DUP3 ADD MLOAD DUP2 PUSH1 0x2 ADD SSTORE PUSH1 0x60 DUP3 ADD MLOAD DUP2 PUSH1 0x3 ADD SWAP1 DUP1 MLOAD SWAP1 PUSH1 0x20 ADD SWAP1 PUSH2 0x655 SWAP3 SWAP2 SWAP1 PUSH2 0x660 JUMP JUMPDEST POP SWAP1 POP POP POP POP POP POP POP JUMP JUMPDEST DUP3 DUP1 SLOAD DUP3 DUP3 SSTORE SWAP1 PUSH0 MSTORE PUSH1 0x20 PUSH0 KECCAK256 SWAP1 DUP2 ADD SWAP3 DUP3 ISZERO PUSH2 0x6A6 JUMPI SWAP2 PUSH1 0x20 MUL DUP3 ADD JUMPDEST DUP3 DUP2 GT ISZERO PUSH2 0x6A5 JUMPI DUP3 MLOAD DUP3 SWAP1 DUP2 PUSH2 0x695 SWAP2 SWAP1 PUSH2 0xDD1 JUMP JUMPDEST POP SWAP2 PUSH1 0x20 ADD SWAP2 SWAP1 PUSH1 0x1 ADD SWAP1 PUSH2 0x67E JUMP JUMPDEST JUMPDEST POP SWAP1 POP PUSH2 0x6B3 SWAP2 SWAP1 PUSH2 0x6B7 JUMP JUMPDEST POP SWAP1 JUMP JUMPDEST JUMPDEST DUP1 DUP3 GT ISZERO PUSH2 0x6D6 JUMPI PUSH0 DUP2 DUP2 PUSH2 0x6CD SWAP2 SWAP1 PUSH2 0x6DA JUMP JUMPDEST POP PUSH1 0x1 ADD PUSH2 0x6B8 JUMP JUMPDEST POP SWAP1 JUMP JUMPDEST POP DUP1 SLOAD PUSH2 0x6E6 SWAP1 PUSH2 0xC04 JUMP JUMPDEST PUSH0 DUP3 SSTORE DUP1 PUSH1 0x1F LT PUSH2 0x6F7 JUMPI POP PUSH2 0x714 JUMP JUMPDEST PUSH1 0x1F ADD PUSH1 0x20 SWAP1 DIV SWAP1 PUSH0 MSTORE PUSH1 0x20 PUSH0 KECCAK256 SWAP1 DUP2 ADD SWAP1 PUSH2 0x713 SWAP2 SWAP1 PUSH2 0x717 JUMP JUMPDEST JUMPDEST POP JUMP JUMPDEST JUMPDEST DUP1 DUP3 GT ISZERO PUSH2 0x72E JUMPI PUSH0 DUP2 PUSH0 SWAP1 SSTORE POP PUSH1 0x1 ADD PUSH2 0x718 JUMP JUMPDEST POP SWAP1 JUMP JUMPDEST PUSH0 PUSH1 0x40 MLOAD SWAP1 POP SWAP1 JUMP JUMPDEST PUSH0 DUP1 REVERT JUMPDEST PUSH0 DUP1 REVERT JUMPDEST PUSH0 DUP2 SWAP1 POP SWAP2 SWAP1 POP JUMP JUMPDEST PUSH2 0x755 DUP2 PUSH2 0x743 JUMP JUMPDEST DUP2 EQ PUSH2 0x75F JUMPI PUSH0 DUP1 REVERT JUMPDEST POP JUMP JUMPDEST PUSH0 DUP2 CALLDATALOAD SWAP1 POP PUSH2 0x770 DUP2 PUSH2 0x74C JUMP JUMPDEST SWAP3 SWAP2 POP POP JUMP JUMPDEST PUSH0 PUSH1 0x20 DUP3 DUP5 SUB SLT ISZERO PUSH2 0x78B JUMPI PUSH2 0x78A PUSH2 0x73B JUMP JUMPDEST JUMPDEST PUSH0 PUSH2 0x798 DUP5 DUP3 DUP6 ADD PUSH2 0x762 JUMP JUMPDEST SWAP2 POP POP SWAP3 SWAP2 POP POP JUMP JUMPDEST PUSH2 0x7AA DUP2 PUSH2 0x743 JUMP JUMPDEST DUP3 MSTORE POP POP JUMP JUMPDEST PUSH0 DUP2 MLOAD SWAP1 POP SWAP2 SWAP1 POP JUMP JUMPDEST PUSH0 DUP3 DUP3 MSTORE PUSH1 0x20 DUP3 ADD SWAP1 POP SWAP3 SWAP2 POP POP JUMP JUMPDEST DUP3 DUP2 DUP4 MCOPY PUSH0 DUP4 DUP4 ADD MSTORE POP POP POP JUMP JUMPDEST PUSH0 PUSH1 0x1F NOT PUSH1 0x1F DUP4 ADD AND SWAP1 POP SWAP2 SWAP1 POP JUMP JUMPDEST PUSH0 PUSH2 0x7F2 DUP3 PUSH2 0x7B0 JUMP JUMPDEST PUSH2 0x7FC DUP2 DUP6 PUSH2 0x7BA JUMP JUMPDEST SWAP4 POP PUSH2 0x80C DUP2 DUP6 PUSH1 0x20 DUP7 ADD PUSH2 0x7CA JUMP JUMPDEST PUSH2 0x815 DUP2 PUSH2 0x7D8 JUMP JUMPDEST DUP5 ADD SWAP2 POP POP SWAP3 SWAP2 POP POP JUMP JUMPDEST PUSH0 PUSH1 0x60 DUP3 ADD SWAP1 POP PUSH2 0x833 PUSH0 DUP4 ADD DUP7 PUSH2 0x7A1 JUMP JUMPDEST DUP2 DUP2 SUB PUSH1 0x20 DUP4 ADD MSTORE PUSH2 0x845 DUP2 DUP6 PUSH2 0x7E8 JUMP JUMPDEST SWAP1 POP PUSH2 0x854 PUSH1 0x40 DUP4 ADD DUP5 PUSH2 0x7A1 JUMP JUMPDEST SWAP5 SWAP4 POP POP POP POP JUMP JUMPDEST PUSH0 PUSH1 0x20 DUP3 ADD SWAP1 POP PUSH2 0x86F PUSH0 DUP4 ADD DUP5 PUSH2 0x7A1 JUMP JUMPDEST SWAP3 SWAP2 POP POP JUMP JUMPDEST PUSH0 DUP1 REVERT JUMPDEST PUSH0 DUP1 REVERT JUMPDEST PUSH32 0x4E487B7100000000000000000000000000000000000000000000000000000000 PUSH0 MSTORE PUSH1 0x41 PUSH1 0x4 MSTORE PUSH1 0x24 PUSH0 REVERT JUMPDEST PUSH2 0x8B3 DUP3 PUSH2 0x7D8 JUMP JUMPDEST DUP2 ADD DUP2 DUP2 LT PUSH8 0xFFFFFFFFFFFFFFFF DUP3 GT OR ISZERO PUSH2 0x8D2 JUMPI PUSH2 0x8D1 PUSH2 0x87D JUMP JUMPDEST JUMPDEST DUP1 PUSH1 0x40 MSTORE POP POP POP JUMP JUMPDEST PUSH0 PUSH2 0x8E4 PUSH2 0x732 JUMP JUMPDEST SWAP1 POP PUSH2 0x8F0 DUP3 DUP3 PUSH2 0x8AA JUMP JUMPDEST SWAP2 SWAP1 POP JUMP JUMPDEST PUSH0 PUSH8 0xFFFFFFFFFFFFFFFF DUP3 GT ISZERO PUSH2 0x90F JUMPI PUSH2 0x90E PUSH2 0x87D JUMP JUMPDEST JUMPDEST PUSH2 0x918 DUP3 PUSH2 0x7D8 JUMP JUMPDEST SWAP1 POP PUSH1 0x20 DUP2 ADD SWAP1 POP SWAP2 SWAP1 POP JUMP JUMPDEST DUP3 DUP2 DUP4 CALLDATACOPY PUSH0 DUP4 DUP4 ADD MSTORE POP POP POP JUMP JUMPDEST PUSH0 PUSH2 0x945 PUSH2 0x940 DUP5 PUSH2 0x8F5 JUMP JUMPDEST PUSH2 0x8DB JUMP JUMPDEST SWAP1 POP DUP3 DUP2 MSTORE PUSH1 0x20 DUP2 ADD DUP5 DUP5 DUP5 ADD GT ISZERO PUSH2 0x961 JUMPI PUSH2 0x960 PUSH2 0x879 JUMP JUMPDEST JUMPDEST PUSH2 0x96C DUP5 DUP3 DUP6 PUSH2 0x925 JUMP JUMPDEST POP SWAP4 SWAP3 POP POP POP JUMP JUMPDEST PUSH0 DUP3 PUSH1 0x1F DUP4 ADD SLT PUSH2 0x988 JUMPI PUSH2 0x987 PUSH2 0x875 JUMP JUMPDEST JUMPDEST DUP2 CALLDATALOAD PUSH2 0x998 DUP5 DUP3 PUSH1 0x20 DUP7 ADD PUSH2 0x933 JUMP JUMPDEST SWAP2 POP POP SWAP3 SWAP2 POP POP JUMP JUMPDEST PUSH0 DUP1 PUSH1 0x40 DUP4 DUP6 SUB SLT ISZERO PUSH2 0x9B7 JUMPI PUSH2 0x9B6 PUSH2 0x73B JUMP JUMPDEST JUMPDEST PUSH0 PUSH2 0x9C4 DUP6 DUP3 DUP7 ADD PUSH2 0x762 JUMP JUMPDEST SWAP3 POP POP PUSH1 0x20 DUP4 ADD CALLDATALOAD PUSH8 0xFFFFFFFFFFFFFFFF DUP2 GT ISZERO PUSH2 0x9E5 JUMPI PUSH2 0x9E4 PUSH2 0x73F JUMP JUMPDEST JUMPDEST PUSH2 0x9F1 DUP6 DUP3 DUP7 ADD PUSH2 0x974 JUMP JUMPDEST SWAP2 POP POP SWAP3 POP SWAP3 SWAP1 POP JUMP JUMPDEST PUSH0 PUSH1 0x20 DUP3 ADD SWAP1 POP DUP2 DUP2 SUB PUSH0 DUP4 ADD MSTORE PUSH2 0xA13 DUP2 DUP5 PUSH2 0x7E8 JUMP JUMPDEST SWAP1 POP SWAP3 SWAP2 POP POP JUMP JUMPDEST PUSH0 DUP1 PUSH1 0x40 DUP4 DUP6 SUB SLT ISZERO PUSH2 0xA31 JUMPI PUSH2 0xA30 PUSH2 0x73B JUMP JUMPDEST JUMPDEST PUSH0 PUSH2 0xA3E DUP6 DUP3 DUP7 ADD PUSH2 0x762 JUMP JUMPDEST SWAP3 POP POP PUSH1 0x20 PUSH2 0xA4F DUP6 DUP3 DUP7 ADD PUSH2 0x762 JUMP JUMPDEST SWAP2 POP POP SWAP3 POP SWAP3 SWAP1 POP JUMP JUMPDEST PUSH0 PUSH8 0xFFFFFFFFFFFFFFFF DUP3 GT ISZERO PUSH2 0xA73 JUMPI PUSH2 0xA72 PUSH2 0x87D JUMP JUMPDEST JUMPDEST PUSH1 0x20 DUP3 MUL SWAP1 POP PUSH1 0x20 DUP2 ADD SWAP1 POP SWAP2 SWAP1 POP JUMP JUMPDEST PUSH0 DUP1 REVERT JUMPDEST PUSH0 PUSH2 0xA9A PUSH2 0xA95 DUP5 PUSH2 0xA59 JUMP JUMPDEST PUSH2 0x8DB JUMP JUMPDEST SWAP1 POP DUP1 DUP4 DUP3 MSTORE PUSH1 0x20 DUP3 ADD SWAP1 POP PUSH1 0x20 DUP5 MUL DUP4 ADD DUP6 DUP2 GT ISZERO PUSH2 0xABD JUMPI PUSH2 0xABC PUSH2 0xA84 JUMP JUMPDEST JUMPDEST DUP4 JUMPDEST DUP2 DUP2 LT ISZERO PUSH2 0xB04 JUMPI DUP1 CALLDATALOAD PUSH8 0xFFFFFFFFFFFFFFFF DUP2 GT ISZERO PUSH2 0xAE2 JUMPI PUSH2 0xAE1 PUSH2 0x875 JUMP JUMPDEST JUMPDEST DUP1 DUP7 ADD PUSH2 0xAEF DUP10 DUP3 PUSH2 0x974 JUMP JUMPDEST DUP6 MSTORE PUSH1 0x20 DUP6 ADD SWAP5 POP POP POP PUSH1 0x20 DUP2 ADD SWAP1 POP PUSH2 0xABF JUMP JUMPDEST POP POP POP SWAP4 SWAP3 POP POP POP JUMP JUMPDEST PUSH0 DUP3 PUSH1 0x1F DUP4 ADD SLT PUSH2 0xB22 JUMPI PUSH2 0xB21 PUSH2 0x875 JUMP JUMPDEST JUMPDEST DUP2 CALLDATALOAD PUSH2 0xB32 DUP5 DUP3 PUSH1 0x20 DUP7 ADD PUSH2 0xA88 JUMP JUMPDEST SWAP2 POP POP SWAP3 SWAP2 POP POP JUMP JUMPDEST PUSH0 DUP1 PUSH0 DUP1 PUSH1 0x80 DUP6 DUP8 SUB SLT ISZERO PUSH2 0xB53 JUMPI PUSH2 0xB52 PUSH2 0x73B JUMP JUMPDEST JUMPDEST PUSH0 PUSH2 0xB60 DUP8 DUP3 DUP9 ADD PUSH2 0x762 JUMP JUMPDEST SWAP5 POP POP PUSH1 0x20 DUP6 ADD CALLDATALOAD PUSH8 0xFFFFFFFFFFFFFFFF DUP2 GT ISZERO PUSH2 0xB81 JUMPI PUSH2 0xB80 PUSH2 0x73F JUMP JUMPDEST JUMPDEST PUSH2 0xB8D DUP8 DUP3 DUP9 ADD PUSH2 0x974 JUMP JUMPDEST SWAP4 POP POP PUSH1 0x40 PUSH2 0xB9E DUP8 DUP3 DUP9 ADD PUSH2 0x762 JUMP JUMPDEST SWAP3 POP POP PUSH1 0x60 DUP6 ADD CALLDATALOAD PUSH8 0xFFFFFFFFFFFFFFFF DUP2 GT ISZERO PUSH2 0xBBF JUMPI PUSH2 0xBBE PUSH2 0x73F JUMP JUMPDEST JUMPDEST PUSH2 0xBCB DUP8 DUP3 DUP9 ADD PUSH2 0xB0E JUMP JUMPDEST SWAP2 POP POP SWAP3 SWAP6 SWAP2 SWAP5 POP SWAP3 POP JUMP JUMPDEST PUSH32 0x4E487B7100000000000000000000000000000000000000000000000000000000 PUSH0 MSTORE PUSH1 0x22 PUSH1 0x4 MSTORE PUSH1 0x24 PUSH0 REVERT JUMPDEST PUSH0 PUSH1 0x2 DUP3 DIV SWAP1 POP PUSH1 0x1 DUP3 AND DUP1 PUSH2 0xC1B JUMPI PUSH1 0x7F DUP3 AND SWAP2 POP JUMPDEST PUSH1 0x20 DUP3 LT DUP2 SUB PUSH2 0xC2E JUMPI PUSH2 0xC2D PUSH2 0xBD7 JUMP JUMPDEST JUMPDEST POP SWAP2 SWAP1 POP JUMP JUMPDEST PUSH0 DUP2 SWAP1 POP DUP2 PUSH0 MSTORE PUSH1 0x20 PUSH0 KECCAK256 SWAP1 POP SWAP2 SWAP1 POP JUMP JUMPDEST PUSH0 PUSH1 0x20 PUSH1 0x1F DUP4 ADD DIV SWAP1 POP SWAP2 SWAP1 POP JUMP JUMPDEST PUSH0 DUP3 DUP3 SHL SWAP1 POP SWAP3 SWAP2 POP POP JUMP JUMPDEST PUSH0 PUSH1 0x8 DUP4 MUL PUSH2 0xC90 PUSH32 0xFFFFFFFFFFFFFFFFFFFFFFFFFFFFFFFFFFFFFFFFFFFFFFFFFFFFFFFFFFFFFFFF DUP3 PUSH2 0xC55 JUMP JUMPDEST PUSH2 0xC9A DUP7 DUP4 PUSH2 0xC55 JUMP JUMPDEST SWAP6 POP DUP1 NOT DUP5 AND SWAP4 POP DUP1 DUP7 AND DUP5 OR SWAP3 POP POP POP SWAP4 SWAP3 POP POP POP JUMP JUMPDEST PUSH0 DUP2 SWAP1 POP SWAP2 SWAP1 POP JUMP JUMPDEST PUSH0 PUSH2 0xCD5 PUSH2 0xCD0 PUSH2 0xCCB DUP5 PUSH2 0x743 JUMP JUMPDEST PUSH2 0xCB2 JUMP JUMPDEST PUSH2 0x743 JUMP JUMPDEST SWAP1 POP SWAP2 SWAP1 POP JUMP JUMPDEST PUSH0 DUP2 SWAP1 POP SWAP2 SWAP1 POP JUMP JUMPDEST PUSH2 0xCEE DUP4 PUSH2 0xCBB JUMP JUMPDEST PUSH2 0xD02 PUSH2 0xCFA DUP3 PUSH2 0xCDC JUMP JUMPDEST DUP5 DUP5 SLOAD PUSH2 0xC61 JUMP JUMPDEST DUP3 SSTORE POP POP POP POP JUMP JUMPDEST PUSH0 SWAP1 JUMP JUMPDEST PUSH2 0xD16 PUSH2 0xD0A JUMP JUMPDEST PUSH2 0xD21 DUP2 DUP5 DUP5 PUSH2 0xCE5 JUMP JUMPDEST POP POP POP JUMP JUMPDEST JUMPDEST DUP2 DUP2 LT ISZERO PUSH2 0xD44 JUMPI PUSH2 0xD39 PUSH0 DUP3 PUSH2 0xD0E JUMP JUMPDEST PUSH1 0x1 DUP2 ADD SWAP1 POP PUSH2 0xD27 JUMP JUMPDEST POP POP JUMP JUMPDEST PUSH1 0x1F DUP3 GT ISZERO PUSH2 0xD89 JUMPI PUSH2 0xD5A DUP2 PUSH2 0xC34 JUMP JUMPDEST PUSH2 0xD63 DUP5 PUSH2 0xC46 JUMP JUMPDEST DUP2 ADD PUSH1 0x20 DUP6 LT ISZERO PUSH2 0xD72 JUMPI DUP2 SWAP1 POP JUMPDEST PUSH2 0xD86 PUSH2 0xD7E DUP6 PUSH2 0xC46 JUMP JUMPDEST DUP4 ADD DUP3 PUSH2 0xD26 JUMP JUMPDEST POP POP JUMPDEST POP POP POP JUMP JUMPDEST PUSH0 DUP3 DUP3 SHR SWAP1 POP SWAP3 SWAP2 POP POP JUMP JUMPDEST PUSH0 PUSH2 0xDA9 PUSH0 NOT DUP5 PUSH1 0x8 MUL PUSH2 0xD8E JUMP JUMPDEST NOT DUP1 DUP4 AND SWAP2 POP POP SWAP3 SWAP2 POP POP JUMP JUMPDEST PUSH0 PUSH2 0xDC1 DUP4 DUP4 PUSH2 0xD9A JUMP JUMPDEST SWAP2 POP DUP3 PUSH1 0x2 MUL DUP3 OR SWAP1 POP SWAP3 SWAP2 POP POP JUMP JUMPDEST PUSH2 0xDDA DUP3 PUSH2 0x7B0 JUMP JUMPDEST PUSH8 0xFFFFFFFFFFFFFFFF DUP2 GT ISZERO PUSH2 0xDF3 JUMPI PUSH2 0xDF2 PUSH2 0x87D JUMP JUMPDEST JUMPDEST PUSH2 0xDFD DUP3 SLOAD PUSH2 0xC04 JUMP JUMPDEST PUSH2 0xE08 DUP3 DUP3 DUP6 PUSH2 0xD48 JUMP JUMPDEST PUSH0 PUSH1 0x20 SWAP1 POP PUSH1 0x1F DUP4 GT PUSH1 0x1 DUP2 EQ PUSH2 0xE39 JUMPI PUSH0 DUP5 ISZERO PUSH2 0xE27 JUMPI DUP3 DUP8 ADD MLOAD SWAP1 POP JUMPDEST PUSH2 0xE31 DUP6 DUP3 PUSH2 0xDB6 JUMP JUMPDEST DUP7 SSTORE POP PUSH2 0xE98 JUMP JUMPDEST PUSH1 0x1F NOT DUP5 AND PUSH2 0xE47 DUP7 PUSH2 0xC34 JUMP JUMPDEST PUSH0 JUMPDEST DUP3 DUP2 LT ISZERO PUSH2 0xE6E JUMPI DUP5 DUP10 ADD MLOAD DUP3 SSTORE PUSH1 0x1 DUP3 ADD SWAP2 POP PUSH1 0x20 DUP6 ADD SWAP5 POP PUSH1 0x20 DUP2 ADD SWAP1 POP PUSH2 0xE49 JUMP JUMPDEST DUP7 DUP4 LT ISZERO PUSH2 0xE8B JUMPI DUP5 DUP10 ADD MLOAD PUSH2 0xE87 PUSH1 0x1F DUP10 AND DUP3 PUSH2 0xD9A JUMP JUMPDEST DUP4 SSTORE POP JUMPDEST PUSH1 0x1 PUSH1 0x2 DUP9 MUL ADD DUP9 SSTORE POP POP POP JUMPDEST POP POP POP POP POP POP JUMP JUMPDEST PUSH32 0x4E487B7100000000000000000000000000000000000000000000000000000000 PUSH0 MSTORE PUSH1 0x32 PUSH1 0x4 MSTORE PUSH1 0x24 PUSH0 REVERT INVALID LOG2 PUSH5 0x6970667358 0x22 SLT KECCAK256 LOG1 NUMBER TIMESTAMP DUP9 DUP5 0xB9 BLOBHASH PUSH23 0xCA96252F0D1B55811CB0FE4281F91B63F32D450DCA1878 0xB6 PUSH5 0x736F6C6343 STOP ADDMOD BYTE STOP CALLER "
				},
				"gasEstimates": {
					"creation": {
						"codeDepositCost": "768600",
						"executionCost": "803",
						"totalCost": "769403"
					},
					"external": {
						"addCourse(uint256,string)": "infinite",
						"addStudent(uint256,string,uint256,string[])": "infinite",
						"getStudentCourse(uint256,uint256)": "infinite",
						"getStudentName(uint256)": "infinite",
						"getTotalStudents()": "2485",
						"studentById(uint256)": "infinite",
						"students(uint256)": "infinite"
					}
				},
				"methodIdentifiers": {
					"addCourse(uint256,string)": "32698a09",
					"addStudent(uint256,string,uint256,string[])": "c3447983",
					"getStudentCourse(uint256,uint256)": "bf23fccc",
					"getStudentName(uint256)": "9ac43876",
					"getTotalStudents()": "28bcb51a",
					"studentById(uint256)": "1c9f7bb9",
					"students(uint256)": "06ead22e"
				}
			},
			"storageLayout": {
				"storage": [
					{
						"astId": 15,
						"contract": "ArrayANDStruct.sol:StudentManager",
						"label": "students",
						"offset": 0,
						"slot": "0",
						"type": "t_array(t_struct(Student)11_storage)dyn_storage"
					},
					{
						"astId": 20,
						"contract": "ArrayANDStruct.sol:StudentManager",
						"label": "studentById",
						"offset": 0,
						"slot": "1",
						"type": "t_mapping(t_uint256,t_struct(Student)11_storage)"
					}
				],
				"types": {
					"t_array(t_string_storage)dyn_storage": {
						"base": "t_string_storage",
						"encoding": "dynamic_array",
						"label": "string[]",
						"numberOfBytes": "32"
					},
					"t_array(t_struct(Student)11_storage)dyn_storage": {
						"base": "t_struct(Student)11_storage",
						"encoding": "dynamic_array",
						"label": "struct StudentManager.Student[]",
						"numberOfBytes": "32"
					},
					"t_mapping(t_uint256,t_struct(Student)11_storage)": {
						"encoding": "mapping",
						"key": "t_uint256",
						"label": "mapping(uint256 => struct StudentManager.Student)",
						"numberOfBytes": "32",
						"value": "t_struct(Student)11_storage"
					},
					"t_string_storage": {
						"encoding": "bytes",
						"label": "string",
						"numberOfBytes": "32"
					},
					"t_struct(Student)11_storage": {
						"encoding": "inplace",
						"label": "struct StudentManager.Student",
						"members": [
							{
								"astId": 3,
								"contract": "ArrayANDStruct.sol:StudentManager",
								"label": "id",
								"offset": 0,
								"slot": "0",
								"type": "t_uint256"
							},
							{
								"astId": 5,
								"contract": "ArrayANDStruct.sol:StudentManager",
								"label": "name",
								"offset": 0,
								"slot": "1",
								"type": "t_string_storage"
							},
							{
								"astId": 7,
								"contract": "ArrayANDStruct.sol:StudentManager",
								"label": "age",
								"offset": 0,
								"slot": "2",
								"type": "t_uint256"
							},
							{
								"astId": 10,
								"contract": "ArrayANDStruct.sol:StudentManager",
								"label": "courses",
								"offset": 0,
								"slot": "3",
								"type": "t_array(t_string_storage)dyn_storage"
							}
						],
						"numberOfBytes": "128"
					},
					"t_uint256": {
						"encoding": "inplace",
						"label": "uint256",
						"numberOfBytes": "32"
					}
				}
			},
			"userdoc": {
				"kind": "user",
				"methods": {},
				"version": 1
			}
		}
	}
}