{
	"Functions.sol": {
		"addnumber": {
			"abi": [
				{
					"inputs": [],
					"name": "ans",
					"outputs": [
						{
							"internalType": "uint32",
							"name": "",
							"type": "uint32"
						}
					],
					"stateMutability": "view",
					"type": "function"
				},
				{
					"inputs": [],
					"name": "getans",
					"outputs": [
						{
							"internalType": "uint32",
							"name": "",
							"type": "uint32"
						}
					],
					"stateMutability": "view",
					"type": "function"
				},
				{
					"inputs": [
						{
							"internalType": "uint32",
							"name": "num1",
							"type": "uint32"
						},
						{
							"internalType": "uint32",
							"name": "num2",
							"type": "uint32"
						}
					],
					"name": "getsum",
					"outputs": [
						{
							"internalType": "uint32",
							"name": "",
							"type": "uint32"
						}
					],
					"stateMutability": "nonpayable",
					"type": "function"
				}
			],
			"devdoc": {
				"kind": "dev",
				"methods": {},
				"version": 1
			},
			"evm": {
				"assembly": "    /* \"Functions.sol\":61:420  contract addnumber {... */\n  mstore(0x40, 0x80)\n    /* \"Functions.sol\":107:108  0 */\n  0x00\n    /* \"Functions.sol\":87:108  uint32 public ans = 0 */\n  dup1\n  exp(0x0100, 0x00)\n  dup2\n  sload\n  dup2\n  0xffffffff\n  mul\n  not\n  and\n  swap1\n  dup4\n  0xffffffff\n  and\n  mul\n  or\n  swap1\n  sstore\n  pop\n    /* \"Functions.sol\":61:420  contract addnumber {... */\n  callvalue\n  dup1\n  iszero\n  tag_1\n  jumpi\n  0x00\n  dup1\n  revert\ntag_1:\n  pop\n  dataSize(sub_0)\n  dup1\n  dataOffset(sub_0)\n  0x00\n  codecopy\n  0x00\n  return\nstop\n\nsub_0: assembly {\n        /* \"Functions.sol\":61:420  contract addnumber {... */\n      mstore(0x40, 0x80)\n      callvalue\n      dup1\n      iszero\n      tag_1\n      jumpi\n      0x00\n      dup1\n      revert\n    tag_1:\n      pop\n      jumpi(tag_2, lt(calldatasize, 0x04))\n      shr(0xe0, calldataload(0x00))\n      dup1\n      0x81a58361\n      eq\n      tag_3\n      jumpi\n      dup1\n      0xa71ddb53\n      eq\n      tag_4\n      jumpi\n      dup1\n      0xb68d40d2\n      eq\n      tag_5\n      jumpi\n    tag_2:\n      0x00\n      dup1\n      revert\n        /* \"Functions.sol\":343:417  function getans() public view returns(uint32){... */\n    tag_3:\n      tag_6\n      tag_7\n      jump\t// in\n    tag_6:\n      mload(0x40)\n      tag_8\n      swap2\n      swap1\n      tag_9\n      jump\t// in\n    tag_8:\n      mload(0x40)\n      dup1\n      swap2\n      sub\n      swap1\n      return\n        /* \"Functions.sol\":87:108  uint32 public ans = 0 */\n    tag_4:\n      tag_10\n      tag_11\n      jump\t// in\n    tag_10:\n      mload(0x40)\n      tag_12\n      swap2\n      swap1\n      tag_9\n      jump\t// in\n    tag_12:\n      mload(0x40)\n      dup1\n      swap2\n      sub\n      swap1\n      return\n        /* \"Functions.sol\":117:335  function getsum(uint32 num1, uint32 num2) public returns(uint32) {... */\n    tag_5:\n      tag_13\n      0x04\n      dup1\n      calldatasize\n      sub\n      dup2\n      add\n      swap1\n      tag_14\n      swap2\n      swap1\n      tag_15\n      jump\t// in\n    tag_14:\n      tag_16\n      jump\t// in\n    tag_13:\n      mload(0x40)\n      tag_17\n      swap2\n      swap1\n      tag_9\n      jump\t// in\n    tag_17:\n      mload(0x40)\n      dup1\n      swap2\n      sub\n      swap1\n      return\n        /* \"Functions.sol\":343:417  function getans() public view returns(uint32){... */\n    tag_7:\n        /* \"Functions.sol\":381:387  uint32 */\n      0x00\n        /* \"Functions.sol\":406:409  ans */\n      dup1\n      0x00\n      swap1\n      sload\n      swap1\n      0x0100\n      exp\n      swap1\n      div\n      0xffffffff\n      and\n        /* \"Functions.sol\":399:409  return ans */\n      swap1\n      pop\n        /* \"Functions.sol\":343:417  function getans() public view returns(uint32){... */\n      swap1\n      jump\t// out\n        /* \"Functions.sol\":87:108  uint32 public ans = 0 */\n    tag_11:\n      0x00\n      dup1\n      sload\n      swap1\n      0x0100\n      exp\n      swap1\n      div\n      0xffffffff\n      and\n      dup2\n      jump\t// out\n        /* \"Functions.sol\":117:335  function getsum(uint32 num1, uint32 num2) public returns(uint32) {... */\n    tag_16:\n        /* \"Functions.sol\":174:180  uint32 */\n      0x00\n        /* \"Functions.sol\":203:204  0 */\n      dup1\n        /* \"Functions.sol\":196:200  num1 */\n      dup4\n        /* \"Functions.sol\":196:204  num1 < 0 */\n      0xffffffff\n      and\n      lt\n        /* \"Functions.sol\":196:216  num1 < 0 || num2 < 0 */\n      dup1\n      tag_20\n      jumpi\n      pop\n        /* \"Functions.sol\":215:216  0 */\n      0x00\n        /* \"Functions.sol\":208:212  num2 */\n      dup3\n        /* \"Functions.sol\":208:216  num2 < 0 */\n      0xffffffff\n      and\n      lt\n        /* \"Functions.sol\":196:216  num1 < 0 || num2 < 0 */\n    tag_20:\n        /* \"Functions.sol\":193:328  if(num1 < 0 || num2 < 0) {... */\n      iszero\n      tag_21\n      jumpi\n        /* \"Functions.sol\":240:241  0 */\n      0x00\n        /* \"Functions.sol\":233:241  return 0 */\n      swap1\n      pop\n      jump(tag_19)\n        /* \"Functions.sol\":193:328  if(num1 < 0 || num2 < 0) {... */\n    tag_21:\n        /* \"Functions.sol\":287:291  num2 */\n      dup2\n        /* \"Functions.sol\":280:284  num1 */\n      dup4\n        /* \"Functions.sol\":280:291  num1 + num2 */\n      tag_23\n      swap2\n      swap1\n      tag_24\n      jump\t// in\n    tag_23:\n        /* \"Functions.sol\":274:277  ans */\n      0x00\n      dup1\n        /* \"Functions.sol\":274:291  ans = num1 + num2 */\n      0x0100\n      exp\n      dup2\n      sload\n      dup2\n      0xffffffff\n      mul\n      not\n      and\n      swap1\n      dup4\n      0xffffffff\n      and\n      mul\n      or\n      swap1\n      sstore\n      pop\n        /* \"Functions.sol\":313:316  ans */\n      0x00\n      dup1\n      sload\n      swap1\n      0x0100\n      exp\n      swap1\n      div\n      0xffffffff\n      and\n        /* \"Functions.sol\":306:316  return ans */\n      swap1\n      pop\n        /* \"Functions.sol\":117:335  function getsum(uint32 num1, uint32 num2) public returns(uint32) {... */\n    tag_19:\n      swap3\n      swap2\n      pop\n      pop\n      jump\t// out\n        /* \"#utility.yul\":7:100   */\n    tag_25:\n        /* \"#utility.yul\":43:50   */\n      0x00\n        /* \"#utility.yul\":83:93   */\n      0xffffffff\n        /* \"#utility.yul\":76:81   */\n      dup3\n        /* \"#utility.yul\":72:94   */\n      and\n        /* \"#utility.yul\":61:94   */\n      swap1\n      pop\n        /* \"#utility.yul\":7:100   */\n      swap2\n      swap1\n      pop\n      jump\t// out\n        /* \"#utility.yul\":106:221   */\n    tag_26:\n        /* \"#utility.yul\":191:214   */\n      tag_36\n        /* \"#utility.yul\":208:213   */\n      dup2\n        /* \"#utility.yul\":191:214   */\n      tag_25\n      jump\t// in\n    tag_36:\n        /* \"#utility.yul\":186:189   */\n      dup3\n        /* \"#utility.yul\":179:215   */\n      mstore\n        /* \"#utility.yul\":106:221   */\n      pop\n      pop\n      jump\t// out\n        /* \"#utility.yul\":227:445   */\n    tag_9:\n        /* \"#utility.yul\":318:322   */\n      0x00\n        /* \"#utility.yul\":356:358   */\n      0x20\n        /* \"#utility.yul\":345:354   */\n      dup3\n        /* \"#utility.yul\":341:359   */\n      add\n        /* \"#utility.yul\":333:359   */\n      swap1\n      pop\n        /* \"#utility.yul\":369:438   */\n      tag_38\n        /* \"#utility.yul\":435:436   */\n      0x00\n        /* \"#utility.yul\":424:433   */\n      dup4\n        /* \"#utility.yul\":420:437   */\n      add\n        /* \"#utility.yul\":411:417   */\n      dup5\n        /* \"#utility.yul\":369:438   */\n      tag_26\n      jump\t// in\n    tag_38:\n        /* \"#utility.yul\":227:445   */\n      swap3\n      swap2\n      pop\n      pop\n      jump\t// out\n        /* \"#utility.yul\":532:649   */\n    tag_28:\n        /* \"#utility.yul\":641:642   */\n      0x00\n        /* \"#utility.yul\":638:639   */\n      dup1\n        /* \"#utility.yul\":631:643   */\n      revert\n        /* \"#utility.yul\":778:898   */\n    tag_30:\n        /* \"#utility.yul\":850:873   */\n      tag_43\n        /* \"#utility.yul\":867:872   */\n      dup2\n        /* \"#utility.yul\":850:873   */\n      tag_25\n      jump\t// in\n    tag_43:\n        /* \"#utility.yul\":843:848   */\n      dup2\n        /* \"#utility.yul\":840:874   */\n      eq\n        /* \"#utility.yul\":830:892   */\n      tag_44\n      jumpi\n        /* \"#utility.yul\":888:889   */\n      0x00\n        /* \"#utility.yul\":885:886   */\n      dup1\n        /* \"#utility.yul\":878:890   */\n      revert\n        /* \"#utility.yul\":830:892   */\n    tag_44:\n        /* \"#utility.yul\":778:898   */\n      pop\n      jump\t// out\n        /* \"#utility.yul\":904:1041   */\n    tag_31:\n        /* \"#utility.yul\":949:954   */\n      0x00\n        /* \"#utility.yul\":987:993   */\n      dup2\n        /* \"#utility.yul\":974:994   */\n      calldataload\n        /* \"#utility.yul\":965:994   */\n      swap1\n      pop\n        /* \"#utility.yul\":1003:1035   */\n      tag_46\n        /* \"#utility.yul\":1029:1034   */\n      dup2\n        /* \"#utility.yul\":1003:1035   */\n      tag_30\n      jump\t// in\n    tag_46:\n        /* \"#utility.yul\":904:1041   */\n      swap3\n      swap2\n      pop\n      pop\n      jump\t// out\n        /* \"#utility.yul\":1047:1517   */\n    tag_15:\n        /* \"#utility.yul\":1113:1119   */\n      0x00\n        /* \"#utility.yul\":1121:1127   */\n      dup1\n        /* \"#utility.yul\":1170:1172   */\n      0x40\n        /* \"#utility.yul\":1158:1167   */\n      dup4\n        /* \"#utility.yul\":1149:1156   */\n      dup6\n        /* \"#utility.yul\":1145:1168   */\n      sub\n        /* \"#utility.yul\":1141:1173   */\n      slt\n        /* \"#utility.yul\":1138:1257   */\n      iszero\n      tag_48\n      jumpi\n        /* \"#utility.yul\":1176:1255   */\n      tag_49\n      tag_28\n      jump\t// in\n    tag_49:\n        /* \"#utility.yul\":1138:1257   */\n    tag_48:\n        /* \"#utility.yul\":1296:1297   */\n      0x00\n        /* \"#utility.yul\":1321:1373   */\n      tag_50\n        /* \"#utility.yul\":1365:1372   */\n      dup6\n        /* \"#utility.yul\":1356:1362   */\n      dup3\n        /* \"#utility.yul\":1345:1354   */\n      dup7\n        /* \"#utility.yul\":1341:1363   */\n      add\n        /* \"#utility.yul\":1321:1373   */\n      tag_31\n      jump\t// in\n    tag_50:\n        /* \"#utility.yul\":1311:1373   */\n      swap3\n      pop\n        /* \"#utility.yul\":1267:1383   */\n      pop\n        /* \"#utility.yul\":1422:1424   */\n      0x20\n        /* \"#utility.yul\":1448:1500   */\n      tag_51\n        /* \"#utility.yul\":1492:1499   */\n      dup6\n        /* \"#utility.yul\":1483:1489   */\n      dup3\n        /* \"#utility.yul\":1472:1481   */\n      dup7\n        /* \"#utility.yul\":1468:1490   */\n      add\n        /* \"#utility.yul\":1448:1500   */\n      tag_31\n      jump\t// in\n    tag_51:\n        /* \"#utility.yul\":1438:1500   */\n      swap2\n      pop\n        /* \"#utility.yul\":1393:1510   */\n      pop\n        /* \"#utility.yul\":1047:1517   */\n      swap3\n      pop\n      swap3\n      swap1\n      pop\n      jump\t// out\n        /* \"#utility.yul\":1523:1703   */\n    tag_32:\n        /* \"#utility.yul\":1571:1648   */\n      0x4e487b7100000000000000000000000000000000000000000000000000000000\n        /* \"#utility.yul\":1568:1569   */\n      0x00\n        /* \"#utility.yul\":1561:1649   */\n      mstore\n        /* \"#utility.yul\":1668:1672   */\n      0x11\n        /* \"#utility.yul\":1665:1666   */\n      0x04\n        /* \"#utility.yul\":1658:1673   */\n      mstore\n        /* \"#utility.yul\":1692:1696   */\n      0x24\n        /* \"#utility.yul\":1689:1690   */\n      0x00\n        /* \"#utility.yul\":1682:1697   */\n      revert\n        /* \"#utility.yul\":1709:1906   */\n    tag_24:\n        /* \"#utility.yul\":1748:1751   */\n      0x00\n        /* \"#utility.yul\":1767:1786   */\n      tag_54\n        /* \"#utility.yul\":1784:1785   */\n      dup3\n        /* \"#utility.yul\":1767:1786   */\n      tag_25\n      jump\t// in\n    tag_54:\n        /* \"#utility.yul\":1762:1786   */\n      swap2\n      pop\n        /* \"#utility.yul\":1800:1819   */\n      tag_55\n        /* \"#utility.yul\":1817:1818   */\n      dup4\n        /* \"#utility.yul\":1800:1819   */\n      tag_25\n      jump\t// in\n    tag_55:\n        /* \"#utility.yul\":1795:1819   */\n      swap3\n      pop\n        /* \"#utility.yul\":1842:1843   */\n      dup3\n        /* \"#utility.yul\":1839:1840   */\n      dup3\n        /* \"#utility.yul\":1835:1844   */\n      add\n        /* \"#utility.yul\":1828:1844   */\n      swap1\n      pop\n        /* \"#utility.yul\":1865:1875   */\n      0xffffffff\n        /* \"#utility.yul\":1860:1863   */\n      dup2\n        /* \"#utility.yul\":1857:1876   */\n      gt\n        /* \"#utility.yul\":1854:1899   */\n      iszero\n      tag_56\n      jumpi\n        /* \"#utility.yul\":1879:1897   */\n      tag_57\n      tag_32\n      jump\t// in\n    tag_57:\n        /* \"#utility.yul\":1854:1899   */\n    tag_56:\n        /* \"#utility.yul\":1709:1906   */\n      swap3\n      swap2\n      pop\n      pop\n      jump\t// out\n\n    auxdata: 0xa264697066735822122082b6d55e583b3dc84eae4c3aed1af5ee8891a39090e4d7a740f2d18c3470588764736f6c634300081a0033\n}\n",
				"bytecode": {
					"linkReferences": {},
					"object": "60806040525f805f6101000a81548163ffffffff021916908363ffffffff160217905550348015602d575f80fd5b506102808061003b5f395ff3fe608060405234801561000f575f80fd5b506004361061003f575f3560e01c806381a5836114610043578063a71ddb5314610061578063b68d40d21461007f575b5f80fd5b61004b6100af565b6040516100589190610161565b60405180910390f35b6100696100c6565b6040516100769190610161565b60405180910390f35b610099600480360381019061009491906101a8565b6100d9565b6040516100a69190610161565b60405180910390f35b5f805f9054906101000a900463ffffffff16905090565b5f8054906101000a900463ffffffff1681565b5f808363ffffffff1610806100f357505f8263ffffffff16105b15610100575f905061013d565b818361010c9190610213565b5f806101000a81548163ffffffff021916908363ffffffff1602179055505f8054906101000a900463ffffffff1690505b92915050565b5f63ffffffff82169050919050565b61015b81610143565b82525050565b5f6020820190506101745f830184610152565b92915050565b5f80fd5b61018781610143565b8114610191575f80fd5b50565b5f813590506101a28161017e565b92915050565b5f80604083850312156101be576101bd61017a565b5b5f6101cb85828601610194565b92505060206101dc85828601610194565b9150509250929050565b7f4e487b71000000000000000000000000000000000000000000000000000000005f52601160045260245ffd5b5f61021d82610143565b915061022883610143565b9250828201905063ffffffff811115610244576102436101e6565b5b9291505056fea264697066735822122082b6d55e583b3dc84eae4c3aed1af5ee8891a39090e4d7a740f2d18c3470588764736f6c634300081a0033",
					"opcodes": "PUSH1 0x80 PUSH1 0x40 MSTORE PUSH0 DUP1 PUSH0 PUSH2 0x100 EXP DUP2 SLOAD DUP2 PUSH4 0xFFFFFFFF MUL NOT AND SWAP1 DUP4 PUSH4 0xFFFFFFFF AND MUL OR SWAP1 SSTORE POP CALLVALUE DUP1 ISZERO PUSH1 0x2D JUMPI PUSH0 DUP1 REVERT JUMPDEST POP PUSH2 0x280 DUP1 PUSH2 0x3B PUSH0 CODECOPY PUSH0 RETURN INVALID PUSH1 0x80 PUSH1 0x40 MSTORE CALLVALUE DUP1 ISZERO PUSH2 0xF JUMPI PUSH0 DUP1 REVERT JUMPDEST POP PUSH1 0x4 CALLDATASIZE LT PUSH2 0x3F JUMPI PUSH0 CALLDATALOAD PUSH1 0xE0 SHR DUP1 PUSH4 0x81A58361 EQ PUSH2 0x43 JUMPI DUP1 PUSH4 0xA71DDB53 EQ PUSH2 0x61 JUMPI DUP1 PUSH4 0xB68D40D2 EQ PUSH2 0x7F JUMPI JUMPDEST PUSH0 DUP1 REVERT JUMPDEST PUSH2 0x4B PUSH2 0xAF JUMP JUMPDEST PUSH1 0x40 MLOAD PUSH2 0x58 SWAP2 SWAP1 PUSH2 0x161 JUMP JUMPDEST PUSH1 0x40 MLOAD DUP1 SWAP2 SUB SWAP1 RETURN JUMPDEST PUSH2 0x69 PUSH2 0xC6 JUMP JUMPDEST PUSH1 0x40 MLOAD PUSH2 0x76 SWAP2 SWAP1 PUSH2 0x161 JUMP JUMPDEST PUSH1 0x40 MLOAD DUP1 SWAP2 SUB SWAP1 RETURN JUMPDEST PUSH2 0x99 PUSH1 0x4 DUP1 CALLDATASIZE SUB DUP2 ADD SWAP1 PUSH2 0x94 SWAP2 SWAP1 PUSH2 0x1A8 JUMP JUMPDEST PUSH2 0xD9 JUMP JUMPDEST PUSH1 0x40 MLOAD PUSH2 0xA6 SWAP2 SWAP1 PUSH2 0x161 JUMP JUMPDEST PUSH1 0x40 MLOAD DUP1 SWAP2 SUB SWAP1 RETURN JUMPDEST PUSH0 DUP1 PUSH0 SWAP1 SLOAD SWAP1 PUSH2 0x100 EXP SWAP1 DIV PUSH4 0xFFFFFFFF AND SWAP1 POP SWAP1 JUMP JUMPDEST PUSH0 DUP1 SLOAD SWAP1 PUSH2 0x100 EXP SWAP1 DIV PUSH4 0xFFFFFFFF AND DUP2 JUMP JUMPDEST PUSH0 DUP1 DUP4 PUSH4 0xFFFFFFFF AND LT DUP1 PUSH2 0xF3 JUMPI POP PUSH0 DUP3 PUSH4 0xFFFFFFFF AND LT JUMPDEST ISZERO PUSH2 0x100 JUMPI PUSH0 SWAP1 POP PUSH2 0x13D JUMP JUMPDEST DUP2 DUP4 PUSH2 0x10C SWAP2 SWAP1 PUSH2 0x213 JUMP JUMPDEST PUSH0 DUP1 PUSH2 0x100 EXP DUP2 SLOAD DUP2 PUSH4 0xFFFFFFFF MUL NOT AND SWAP1 DUP4 PUSH4 0xFFFFFFFF AND MUL OR SWAP1 SSTORE POP PUSH0 DUP1 SLOAD SWAP1 PUSH2 0x100 EXP SWAP1 DIV PUSH4 0xFFFFFFFF AND SWAP1 POP JUMPDEST SWAP3 SWAP2 POP POP JUMP JUMPDEST PUSH0 PUSH4 0xFFFFFFFF DUP3 AND SWAP1 POP SWAP2 SWAP1 POP JUMP JUMPDEST PUSH2 0x15B DUP2 PUSH2 0x143 JUMP JUMPDEST DUP3 MSTORE POP POP JUMP JUMPDEST PUSH0 PUSH1 0x20 DUP3 ADD SWAP1 POP PUSH2 0x174 PUSH0 DUP4 ADD DUP5 PUSH2 0x152 JUMP JUMPDEST SWAP3 SWAP2 POP POP JUMP JUMPDEST PUSH0 DUP1 REVERT JUMPDEST PUSH2 0x187 DUP2 PUSH2 0x143 JUMP JUMPDEST DUP2 EQ PUSH2 0x191 JUMPI PUSH0 DUP1 REVERT JUMPDEST POP JUMP JUMPDEST PUSH0 DUP2 CALLDATALOAD SWAP1 POP PUSH2 0x1A2 DUP2 PUSH2 0x17E JUMP JUMPDEST SWAP3 SWAP2 POP POP JUMP JUMPDEST PUSH0 DUP1 PUSH1 0x40 DUP4 DUP6 SUB SLT ISZERO PUSH2 0x1BE JUMPI PUSH2 0x1BD PUSH2 0x17A JUMP JUMPDEST JUMPDEST PUSH0 PUSH2 0x1CB DUP6 DUP3 DUP7 ADD PUSH2 0x194 JUMP JUMPDEST SWAP3 POP POP PUSH1 0x20 PUSH2 0x1DC DUP6 DUP3 DUP7 ADD PUSH2 0x194 JUMP JUMPDEST SWAP2 POP POP SWAP3 POP SWAP3 SWAP1 POP JUMP JUMPDEST PUSH32 0x4E487B7100000000000000000000000000000000000000000000000000000000 PUSH0 MSTORE PUSH1 0x11 PUSH1 0x4 MSTORE PUSH1 0x24 PUSH0 REVERT JUMPDEST PUSH0 PUSH2 0x21D DUP3 PUSH2 0x143 JUMP JUMPDEST SWAP2 POP PUSH2 0x228 DUP4 PUSH2 0x143 JUMP JUMPDEST SWAP3 POP DUP3 DUP3 ADD SWAP1 POP PUSH4 0xFFFFFFFF DUP2 GT ISZERO PUSH2 0x244 JUMPI PUSH2 0x243 PUSH2 0x1E6 JUMP JUMPDEST JUMPDEST SWAP3 SWAP2 POP POP JUMP INVALID LOG2 PUSH5 0x6970667358 0x22 SLT KECCAK256 DUP3 0xB6 0xD5 MCOPY PC EXTCODESIZE RETURNDATASIZE 0xC8 0x4E 0xAE 0x4C GASPRICE 0xED BYTE CREATE2 0xEE DUP9 SWAP2 LOG3 SWAP1 SWAP1 0xE4 0xD7 0xA7 BLOCKHASH CALLCODE 0xD1 DUP13 CALLVALUE PUSH17 0x588764736F6C634300081A003300000000 "
				},
				"gasEstimates": {
					"creation": {
						"codeDepositCost": "128000",
						"executionCost": "24434",
						"totalCost": "152434"
					},
					"external": {
						"ans()": "2463",
						"getans()": "2451",
						"getsum(uint32,uint32)": "infinite"
					}
				},
				"methodIdentifiers": {
					"ans()": "a71ddb53",
					"getans()": "81a58361",
					"getsum(uint32,uint32)": "b68d40d2"
				}
			},
			"storageLayout": {
				"storage": [
					{
						"astId": 4,
						"contract": "Functions.sol:addnumber",
						"label": "ans",
						"offset": 0,
						"slot": "0",
						"type": "t_uint32"
					}
				],
				"types": {
					"t_uint32": {
						"encoding": "inplace",
						"label": "uint32",
						"numberOfBytes": "4"
					}
				}
			},
			"userdoc": {
				"kind": "user",
				"methods": {},
				"version": 1
			}
		}
	}
}